{
  "contractName": "Escrow",
  "abi": [
    {
      "constant": false,
      "inputs": [
        {
          "name": "recipient",
          "type": "address"
        }
      ],
      "name": "transferPrimary",
      "outputs": [],
      "payable": false,
      "stateMutability": "nonpayable",
      "type": "function"
    },
    {
      "constant": true,
      "inputs": [],
      "name": "primary",
      "outputs": [
        {
          "name": "",
          "type": "address"
        }
      ],
      "payable": false,
      "stateMutability": "view",
      "type": "function"
    },
    {
      "anonymous": false,
      "inputs": [
        {
          "indexed": true,
          "name": "payee",
          "type": "address"
        },
        {
          "indexed": false,
          "name": "weiAmount",
          "type": "uint256"
        }
      ],
      "name": "Deposited",
      "type": "event"
    },
    {
      "anonymous": false,
      "inputs": [
        {
          "indexed": true,
          "name": "payee",
          "type": "address"
        },
        {
          "indexed": false,
          "name": "weiAmount",
          "type": "uint256"
        }
      ],
      "name": "Withdrawn",
      "type": "event"
    },
    {
      "anonymous": false,
      "inputs": [
        {
          "indexed": false,
          "name": "recipient",
          "type": "address"
        }
      ],
      "name": "PrimaryTransferred",
      "type": "event"
    },
    {
      "constant": true,
      "inputs": [
        {
          "name": "payee",
          "type": "address"
        }
      ],
      "name": "depositsOf",
      "outputs": [
        {
          "name": "",
          "type": "uint256"
        }
      ],
      "payable": false,
      "stateMutability": "view",
      "type": "function"
    },
    {
      "constant": false,
      "inputs": [
        {
          "name": "payee",
          "type": "address"
        }
      ],
      "name": "deposit",
      "outputs": [],
      "payable": true,
      "stateMutability": "payable",
      "type": "function"
    },
    {
      "constant": false,
      "inputs": [
        {
          "name": "payee",
          "type": "address"
        }
      ],
      "name": "withdraw",
      "outputs": [],
      "payable": false,
      "stateMutability": "nonpayable",
      "type": "function"
    }
  ],
  "bytecode": "0x6080604081905260008054600160a060020a031916331790819055600160a060020a031681527f4101e71e974f68df5e9730cc223280b41654676bbb052cdcc735c3337e64d2d990602090a16103708061005a6000396000f30060806040526004361061006c5763ffffffff7c01000000000000000000000000000000000000000000000000000000006000350416632348238c811461007157806351cff8d914610094578063c6dbdf61146100b5578063e3a9db1a146100e6578063f340fa0114610119575b600080fd5b34801561007d57600080fd5b50610092600160a060020a036004351661012d565b005b3480156100a057600080fd5b50610092600160a060020a03600435166101c0565b3480156100c157600080fd5b506100ca610267565b60408051600160a060020a039092168252519081900360200190f35b3480156100f257600080fd5b50610107600160a060020a0360043516610276565b60408051918252519081900360200190f35b610092600160a060020a0360043516610291565b600054600160a060020a0316331461014457600080fd5b600160a060020a038116151561015957600080fd5b6000805473ffffffffffffffffffffffffffffffffffffffff1916600160a060020a03838116919091179182905560408051929091168252517f4101e71e974f68df5e9730cc223280b41654676bbb052cdcc735c3337e64d2d9916020908290030190a150565b60008054600160a060020a031633146101d857600080fd5b50600160a060020a038116600081815260016020526040808220805490839055905190929183156108fc02918491818181858888f19350505050158015610223573d6000803e3d6000fd5b50604080518281529051600160a060020a038416917f7084f5476618d8e60b11ef0d7d3f06914655adb8793e28ff7f018d4c76d505d5919081900360200190a25050565b600054600160a060020a031690565b600160a060020a031660009081526001602052604090205490565b60008054600160a060020a031633146102a957600080fd5b50600160a060020a03811660009081526001602052604090205434906102d5908263ffffffff61032b16565b600160a060020a038316600081815260016020908152604091829020939093558051848152905191927f2da466a7b24304f47e87fa2e1e5a81b9831ce54fec19055ce277ca2f39ba42c492918290030190a25050565b60008282018381101561033d57600080fd5b93925050505600a165627a7a72305820a8f986eaca776ce5dea8a60429da87a2e17ff3d9b8b2119a6fbc73968474df0c0029",
  "source": "pragma solidity ^0.4.24;\n\nimport \"../../math/SafeMath.sol\";\nimport \"../../ownership/Secondary.sol\";\n\n /**\n * @title Escrow\n * @dev Base escrow contract, holds funds designated for a payee until they\n * withdraw them.\n * @dev Intended usage: This contract (and derived escrow contracts) should be a\n * standalone contract, that only interacts with the contract that instantiated\n * it. That way, it is guaranteed that all Ether will be handled according to\n * the Escrow rules, and there is no need to check for payable functions or\n * transfers in the inheritance tree. The contract that uses the escrow as its\n * payment method should be its primary, and provide public methods redirecting\n * to the escrow's deposit and withdraw.\n */\ncontract Escrow is Secondary {\n  using SafeMath for uint256;\n\n  event Deposited(address indexed payee, uint256 weiAmount);\n  event Withdrawn(address indexed payee, uint256 weiAmount);\n\n  mapping(address => uint256) private _deposits;\n\n  function depositsOf(address payee) public view returns (uint256) {\n    return _deposits[payee];\n  }\n\n  /**\n  * @dev Stores the sent amount as credit to be withdrawn.\n  * @param payee The destination address of the funds.\n  */\n  function deposit(address payee) public onlyPrimary payable {\n    uint256 amount = msg.value;\n    _deposits[payee] = _deposits[payee].add(amount);\n\n    emit Deposited(payee, amount);\n  }\n\n  /**\n  * @dev Withdraw accumulated balance for a payee.\n  * @param payee The address whose funds will be withdrawn and transferred to.\n  */\n  function withdraw(address payee) public onlyPrimary {\n    uint256 payment = _deposits[payee];\n\n    _deposits[payee] = 0;\n\n    payee.transfer(payment);\n\n    emit Withdrawn(payee, payment);\n  }\n}\n",
  "sourcePath": "openzeppelin-solidity/contracts/payment/escrow/Escrow.sol",
  "compiler": {
    "name": "solc",
    "version": "0.4.24+commit.e67f0147.Emscripten.clang"
  },
  "schemaVersion": "2.0.1",
  "updatedAt": "2018-10-21T16:33:16.644Z"
}