{
  "contractName": "RefundEscrow",
  "abi": [
    {
      "constant": false,
      "inputs": [
        {
          "name": "recipient",
          "type": "address"
        }
      ],
      "name": "transferPrimary",
      "outputs": [],
      "payable": false,
      "stateMutability": "nonpayable",
      "type": "function"
    },
    {
      "constant": false,
      "inputs": [
        {
          "name": "payee",
          "type": "address"
        }
      ],
      "name": "withdraw",
      "outputs": [],
      "payable": false,
      "stateMutability": "nonpayable",
      "type": "function"
    },
    {
      "constant": true,
      "inputs": [],
      "name": "primary",
      "outputs": [
        {
          "name": "",
          "type": "address"
        }
      ],
      "payable": false,
      "stateMutability": "view",
      "type": "function"
    },
    {
      "constant": true,
      "inputs": [
        {
          "name": "payee",
          "type": "address"
        }
      ],
      "name": "depositsOf",
      "outputs": [
        {
          "name": "",
          "type": "uint256"
        }
      ],
      "payable": false,
      "stateMutability": "view",
      "type": "function"
    },
    {
      "inputs": [
        {
          "name": "beneficiary",
          "type": "address"
        }
      ],
      "payable": false,
      "stateMutability": "nonpayable",
      "type": "constructor"
    },
    {
      "anonymous": false,
      "inputs": [],
      "name": "RefundsClosed",
      "type": "event"
    },
    {
      "anonymous": false,
      "inputs": [],
      "name": "RefundsEnabled",
      "type": "event"
    },
    {
      "anonymous": false,
      "inputs": [
        {
          "indexed": true,
          "name": "payee",
          "type": "address"
        },
        {
          "indexed": false,
          "name": "weiAmount",
          "type": "uint256"
        }
      ],
      "name": "Deposited",
      "type": "event"
    },
    {
      "anonymous": false,
      "inputs": [
        {
          "indexed": true,
          "name": "payee",
          "type": "address"
        },
        {
          "indexed": false,
          "name": "weiAmount",
          "type": "uint256"
        }
      ],
      "name": "Withdrawn",
      "type": "event"
    },
    {
      "anonymous": false,
      "inputs": [
        {
          "indexed": false,
          "name": "recipient",
          "type": "address"
        }
      ],
      "name": "PrimaryTransferred",
      "type": "event"
    },
    {
      "constant": true,
      "inputs": [],
      "name": "state",
      "outputs": [
        {
          "name": "",
          "type": "uint8"
        }
      ],
      "payable": false,
      "stateMutability": "view",
      "type": "function"
    },
    {
      "constant": true,
      "inputs": [],
      "name": "beneficiary",
      "outputs": [
        {
          "name": "",
          "type": "address"
        }
      ],
      "payable": false,
      "stateMutability": "view",
      "type": "function"
    },
    {
      "constant": false,
      "inputs": [
        {
          "name": "refundee",
          "type": "address"
        }
      ],
      "name": "deposit",
      "outputs": [],
      "payable": true,
      "stateMutability": "payable",
      "type": "function"
    },
    {
      "constant": false,
      "inputs": [],
      "name": "close",
      "outputs": [],
      "payable": false,
      "stateMutability": "nonpayable",
      "type": "function"
    },
    {
      "constant": false,
      "inputs": [],
      "name": "enableRefunds",
      "outputs": [],
      "payable": false,
      "stateMutability": "nonpayable",
      "type": "function"
    },
    {
      "constant": false,
      "inputs": [],
      "name": "beneficiaryWithdraw",
      "outputs": [],
      "payable": false,
      "stateMutability": "nonpayable",
      "type": "function"
    },
    {
      "constant": true,
      "inputs": [
        {
          "name": "payee",
          "type": "address"
        }
      ],
      "name": "withdrawalAllowed",
      "outputs": [
        {
          "name": "",
          "type": "bool"
        }
      ],
      "payable": false,
      "stateMutability": "view",
      "type": "function"
    }
  ],
  "bytecode": "0x608060405234801561001057600080fd5b506040516020806106e5833981016040818152915160008054600160a060020a031916331790819055600160a060020a0316825291517f4101e71e974f68df5e9730cc223280b41654676bbb052cdcc735c3337e64d2d99181900360200190a1600160a060020a038116151561008557600080fd5b6002805460ff19600160a060020a03939093166101000261010060a860020a031990911617919091169055610626806100bf6000396000f3006080604052600436106100ae5763ffffffff7c01000000000000000000000000000000000000000000000000000000006000350416632348238c81146100b357806338af3eed146100d657806343d726d61461010757806351cff8d91461011c578063685ca1941461013d5780638c52dc41146101725780639af6549a14610187578063c19d93fb1461019c578063c6dbdf61146101d5578063e3a9db1a146101ea578063f340fa011461021d575b600080fd5b3480156100bf57600080fd5b506100d4600160a060020a0360043516610231565b005b3480156100e257600080fd5b506100eb6102c4565b60408051600160a060020a039092168252519081900360200190f35b34801561011357600080fd5b506100d46102d8565b34801561012857600080fd5b506100d4600160a060020a0360043516610343565b34801561014957600080fd5b5061015e600160a060020a0360043516610363565b604080519115158252519081900360200190f35b34801561017e57600080fd5b506100d461037f565b34801561019357600080fd5b506100d46103eb565b3480156101a857600080fd5b506101b1610447565b604051808260028111156101c157fe5b60ff16815260200191505060405180910390f35b3480156101e157600080fd5b506100eb610450565b3480156101f657600080fd5b5061020b600160a060020a036004351661045f565b60408051918252519081900360200190f35b6100d4600160a060020a036004351661047a565b600054600160a060020a0316331461024857600080fd5b600160a060020a038116151561025d57600080fd5b6000805473ffffffffffffffffffffffffffffffffffffffff1916600160a060020a03838116919091179182905560408051929091168252517f4101e71e974f68df5e9730cc223280b41654676bbb052cdcc735c3337e64d2d9916020908290030190a150565b6002546101009004600160a060020a031690565b600054600160a060020a031633146102ef57600080fd5b60006002805460ff169081111561030257fe5b1461030c57600080fd5b6002805460ff1916811790556040517f088672c3a6e342f7cd94a65ba63b79df24a8973927b4d05d803c44bbf787d12f90600090a1565b61034c81610363565b151561035757600080fd5b610360816104a0565b50565b600060016002805460ff169081111561037857fe5b1492915050565b600054600160a060020a0316331461039657600080fd5b60006002805460ff16908111156103a957fe5b146103b357600080fd5b6002805460ff191660011790556040517f599d8e5a83cffb867d051598c4d70e805d59802d8081c1c7d6dffc5b6aca2b8990600090a1565b6002805460ff16818111156103fc57fe5b1461040657600080fd5b600254604051600160a060020a036101009092049190911690303180156108fc02916000818181858888f19350505050158015610360573d6000803e3d6000fd5b60025460ff1690565b600054600160a060020a031690565b600160a060020a031660009081526001602052604090205490565b60006002805460ff169081111561048d57fe5b1461049757600080fd5b61036081610547565b60008054600160a060020a031633146104b857600080fd5b50600160a060020a038116600081815260016020526040808220805490839055905190929183156108fc02918491818181858888f19350505050158015610503573d6000803e3d6000fd5b50604080518281529051600160a060020a038416917f7084f5476618d8e60b11ef0d7d3f06914655adb8793e28ff7f018d4c76d505d5919081900360200190a25050565b60008054600160a060020a0316331461055f57600080fd5b50600160a060020a038116600090815260016020526040902054349061058b908263ffffffff6105e116565b600160a060020a038316600081815260016020908152604091829020939093558051848152905191927f2da466a7b24304f47e87fa2e1e5a81b9831ce54fec19055ce277ca2f39ba42c492918290030190a25050565b6000828201838110156105f357600080fd5b93925050505600a165627a7a723058207600adfad4541c44c77b4e569e20112f7cc0ab38d8b41ed016676c8721e685280029",
  "source": "pragma solidity ^0.4.24;\n\nimport \"./ConditionalEscrow.sol\";\n\n/**\n * @title RefundEscrow\n * @dev Escrow that holds funds for a beneficiary, deposited from multiple\n * parties.\n * @dev Intended usage: See Escrow.sol. Same usage guidelines apply here.\n * @dev The primary account (that is, the contract that instantiates this\n * contract) may deposit, close the deposit period, and allow for either\n * withdrawal by the beneficiary, or refunds to the depositors. All interactions\n * with RefundEscrow will be made through the primary contract. See the\n * RefundableCrowdsale contract for an example of RefundEscrow’s use.\n */\ncontract RefundEscrow is ConditionalEscrow {\n  enum State { Active, Refunding, Closed }\n\n  event RefundsClosed();\n  event RefundsEnabled();\n\n  State private _state;\n  address private _beneficiary;\n\n  /**\n   * @dev Constructor.\n   * @param beneficiary The beneficiary of the deposits.\n   */\n  constructor(address beneficiary) public {\n    require(beneficiary != address(0));\n    _beneficiary = beneficiary;\n    _state = State.Active;\n  }\n\n  /**\n   * @return the current state of the escrow.\n   */\n  function state() public view returns (State) {\n    return _state;\n  }\n\n  /**\n   * @return the beneficiary of the escrow.\n   */\n  function beneficiary() public view returns (address) {\n    return _beneficiary;\n  }\n\n  /**\n   * @dev Stores funds that may later be refunded.\n   * @param refundee The address funds will be sent to if a refund occurs.\n   */\n  function deposit(address refundee) public payable {\n    require(_state == State.Active);\n    super.deposit(refundee);\n  }\n\n  /**\n   * @dev Allows for the beneficiary to withdraw their funds, rejecting\n   * further deposits.\n   */\n  function close() public onlyPrimary {\n    require(_state == State.Active);\n    _state = State.Closed;\n    emit RefundsClosed();\n  }\n\n  /**\n   * @dev Allows for refunds to take place, rejecting further deposits.\n   */\n  function enableRefunds() public onlyPrimary {\n    require(_state == State.Active);\n    _state = State.Refunding;\n    emit RefundsEnabled();\n  }\n\n  /**\n   * @dev Withdraws the beneficiary's funds.\n   */\n  function beneficiaryWithdraw() public {\n    require(_state == State.Closed);\n    _beneficiary.transfer(address(this).balance);\n  }\n\n  /**\n   * @dev Returns whether refundees can withdraw their deposits (be refunded).\n   */\n  function withdrawalAllowed(address payee) public view returns (bool) {\n    return _state == State.Refunding;\n  }\n}\n",
  "sourcePath": "openzeppelin-solidity/contracts/payment/escrow/RefundEscrow.sol",
  "compiler": {
    "name": "solc",
    "version": "0.4.24+commit.e67f0147.Emscripten.clang"
  },
  "schemaVersion": "2.0.1",
  "updatedAt": "2018-10-21T16:33:16.645Z"
}