{
  "contractName": "SampleCrowdsale",
  "abi": [
    {
      "constant": true,
      "inputs": [],
      "name": "hasClosed",
      "outputs": [
        {
          "name": "",
          "type": "bool"
        }
      ],
      "payable": false,
      "stateMutability": "view",
      "type": "function"
    },
    {
      "constant": true,
      "inputs": [],
      "name": "rate",
      "outputs": [
        {
          "name": "",
          "type": "uint256"
        }
      ],
      "payable": false,
      "stateMutability": "view",
      "type": "function"
    },
    {
      "constant": true,
      "inputs": [],
      "name": "cap",
      "outputs": [
        {
          "name": "",
          "type": "uint256"
        }
      ],
      "payable": false,
      "stateMutability": "view",
      "type": "function"
    },
    {
      "constant": true,
      "inputs": [],
      "name": "goal",
      "outputs": [
        {
          "name": "",
          "type": "uint256"
        }
      ],
      "payable": false,
      "stateMutability": "view",
      "type": "function"
    },
    {
      "constant": true,
      "inputs": [],
      "name": "weiRaised",
      "outputs": [
        {
          "name": "",
          "type": "uint256"
        }
      ],
      "payable": false,
      "stateMutability": "view",
      "type": "function"
    },
    {
      "constant": true,
      "inputs": [],
      "name": "closingTime",
      "outputs": [
        {
          "name": "",
          "type": "uint256"
        }
      ],
      "payable": false,
      "stateMutability": "view",
      "type": "function"
    },
    {
      "constant": false,
      "inputs": [],
      "name": "finalize",
      "outputs": [],
      "payable": false,
      "stateMutability": "nonpayable",
      "type": "function"
    },
    {
      "constant": true,
      "inputs": [],
      "name": "capReached",
      "outputs": [
        {
          "name": "",
          "type": "bool"
        }
      ],
      "payable": false,
      "stateMutability": "view",
      "type": "function"
    },
    {
      "constant": true,
      "inputs": [],
      "name": "wallet",
      "outputs": [
        {
          "name": "",
          "type": "address"
        }
      ],
      "payable": false,
      "stateMutability": "view",
      "type": "function"
    },
    {
      "constant": true,
      "inputs": [],
      "name": "goalReached",
      "outputs": [
        {
          "name": "",
          "type": "bool"
        }
      ],
      "payable": false,
      "stateMutability": "view",
      "type": "function"
    },
    {
      "constant": true,
      "inputs": [],
      "name": "isFinalized",
      "outputs": [
        {
          "name": "",
          "type": "bool"
        }
      ],
      "payable": false,
      "stateMutability": "view",
      "type": "function"
    },
    {
      "constant": true,
      "inputs": [],
      "name": "owner",
      "outputs": [
        {
          "name": "",
          "type": "address"
        }
      ],
      "payable": false,
      "stateMutability": "view",
      "type": "function"
    },
    {
      "constant": false,
      "inputs": [],
      "name": "claimRefund",
      "outputs": [],
      "payable": false,
      "stateMutability": "nonpayable",
      "type": "function"
    },
    {
      "constant": true,
      "inputs": [],
      "name": "openingTime",
      "outputs": [
        {
          "name": "",
          "type": "uint256"
        }
      ],
      "payable": false,
      "stateMutability": "view",
      "type": "function"
    },
    {
      "constant": false,
      "inputs": [
        {
          "name": "_beneficiary",
          "type": "address"
        }
      ],
      "name": "buyTokens",
      "outputs": [],
      "payable": true,
      "stateMutability": "payable",
      "type": "function"
    },
    {
      "constant": false,
      "inputs": [
        {
          "name": "newOwner",
          "type": "address"
        }
      ],
      "name": "transferOwnership",
      "outputs": [],
      "payable": false,
      "stateMutability": "nonpayable",
      "type": "function"
    },
    {
      "constant": true,
      "inputs": [],
      "name": "vault",
      "outputs": [
        {
          "name": "",
          "type": "address"
        }
      ],
      "payable": false,
      "stateMutability": "view",
      "type": "function"
    },
    {
      "constant": true,
      "inputs": [],
      "name": "token",
      "outputs": [
        {
          "name": "",
          "type": "address"
        }
      ],
      "payable": false,
      "stateMutability": "view",
      "type": "function"
    },
    {
      "inputs": [
        {
          "name": "_startTime",
          "type": "uint256"
        },
        {
          "name": "_endTime",
          "type": "uint256"
        },
        {
          "name": "_rate",
          "type": "uint256"
        },
        {
          "name": "_wallet",
          "type": "address"
        },
        {
          "name": "_goal",
          "type": "uint256"
        },
        {
          "name": "_cap",
          "type": "uint256"
        },
        {
          "name": "_token",
          "type": "address"
        }
      ],
      "payable": false,
      "stateMutability": "nonpayable",
      "type": "constructor"
    },
    {
      "payable": true,
      "stateMutability": "payable",
      "type": "fallback"
    },
    {
      "anonymous": false,
      "inputs": [],
      "name": "Finalized",
      "type": "event"
    },
    {
      "anonymous": false,
      "inputs": [
        {
          "indexed": true,
          "name": "previousOwner",
          "type": "address"
        },
        {
          "indexed": true,
          "name": "newOwner",
          "type": "address"
        }
      ],
      "name": "OwnershipTransferred",
      "type": "event"
    },
    {
      "anonymous": false,
      "inputs": [
        {
          "indexed": true,
          "name": "purchaser",
          "type": "address"
        },
        {
          "indexed": true,
          "name": "beneficiary",
          "type": "address"
        },
        {
          "indexed": false,
          "name": "value",
          "type": "uint256"
        },
        {
          "indexed": false,
          "name": "amount",
          "type": "uint256"
        }
      ],
      "name": "TokenPurchase",
      "type": "event"
    }
  ],
  "bytecode": "0x60806040526007805460a060020a60ff021916905534801561002057600080fd5b5060405160e0806110bf83398101604090815281516020830151918301516060840151608085015160a086015160c0909601519395929391929091828787848888866000831161006f57600080fd5b600160a060020a038216151561008457600080fd5b600160a060020a038116151561009957600080fd5b60029290925560018054600160a060020a03928316600160a060020a0319918216179091556000805492909316911617815581116100d657600080fd5b600455428210156100e657600080fd5b818110156100f357600080fd5b60059190915560065560078054600160a060020a031916331790556000811161011b57600080fd5b600154600160a060020a031661012f610199565b600160a060020a03909116815260405190819003602001906000f08015801561015c573d6000803e3d6000fd5b5060098054600160a060020a031916600160a060020a03929092169190911790556008558183111561018d57600080fd5b505050505050506101a9565b6040516105fb80610ac483390190565b61090c806101b86000396000f3006080604052600436106100e25763ffffffff60e060020a6000350416631515bc2b81146100ed5780632c4e722e14610116578063355274ea1461013d57806340193883146101525780634042b66f146101675780634b6753bc1461017c5780634bb278f3146101915780634f935945146101a6578063521eb273146101bb5780637d3d6522146101ec5780638d4e4083146102015780638da5cb5b14610216578063b5545a3c1461022b578063b7a8807c14610240578063ec8ac4d814610255578063f2fde38b14610269578063fbfa77cf1461028a578063fc0c546a1461029f575b6100eb336102b4565b005b3480156100f957600080fd5b50610102610356565b604080519115158252519081900360200190f35b34801561012257600080fd5b5061012b61035e565b60408051918252519081900360200190f35b34801561014957600080fd5b5061012b610364565b34801561015e57600080fd5b5061012b61036a565b34801561017357600080fd5b5061012b610370565b34801561018857600080fd5b5061012b610376565b34801561019d57600080fd5b506100eb61037c565b3480156101b257600080fd5b50610102610436565b3480156101c757600080fd5b506101d0610441565b60408051600160a060020a039092168252519081900360200190f35b3480156101f857600080fd5b50610102610450565b34801561020d57600080fd5b5061010261045b565b34801561022257600080fd5b506101d061047c565b34801561023757600080fd5b506100eb61048b565b34801561024c57600080fd5b5061012b610545565b6100eb600160a060020a03600435166102b4565b34801561027557600080fd5b506100eb600160a060020a036004351661054b565b34801561029657600080fd5b506101d06105e0565b3480156102ab57600080fd5b506101d06105ef565b3460006102c183836105fe565b6102ca8261062b565b6003549091506102e0908363ffffffff61064816565b6003556102ed8382610655565b60408051838152602081018390528151600160a060020a0386169233927f623b3804fa71d67900d064613da8f94b9617215ee90799290593e1745087ad18929081900390910190a361033f8383610627565b61034761065f565b6103518383610627565b505050565b600654421190565b60025481565b60045481565b60085481565b60035481565b60065481565b600754600160a060020a0316331461039357600080fd5b60075474010000000000000000000000000000000000000000900460ff16156103bb57600080fd5b6103c3610356565b15156103ce57600080fd5b6103d66106e0565b6040517f6823b073d48d6e3a7d385eeb601452d680e74bb46afe3255a7d778f3a9b1768190600090a16007805474ff0000000000000000000000000000000000000000191674010000000000000000000000000000000000000000179055565b600454600354101590565b600154600160a060020a031681565b600854600354101590565b60075474010000000000000000000000000000000000000000900460ff1681565b600754600160a060020a031681565b60075474010000000000000000000000000000000000000000900460ff1615156104b457600080fd5b6104bc610450565b156104c657600080fd5b600954604080517ffa89401a0000000000000000000000000000000000000000000000000000000081523360048201529051600160a060020a039092169163fa89401a9160248082019260009290919082900301818387803b15801561052b57600080fd5b505af115801561053f573d6000803e3d6000fd5b50505050565b60055481565b600754600160a060020a0316331461056257600080fd5b600160a060020a038116151561057757600080fd5b600754604051600160a060020a038084169216907f8be0079c531659141344cd1fd0a4f28419497f9722a3daafe3b4186f6b6457e090600090a36007805473ffffffffffffffffffffffffffffffffffffffff1916600160a060020a0392909216919091179055565b600954600160a060020a031681565b600054600160a060020a031681565b600554421015801561061257506006544211155b151561061d57600080fd5b61062782826107cf565b5050565b6000610642600254836107fa90919063ffffffff16565b92915050565b8181018281101561064257fe5b6106278282610823565b600954604080517ff340fa010000000000000000000000000000000000000000000000000000000081523360048201529051600160a060020a039092169163f340fa01913491602480830192600092919082900301818588803b1580156106c557600080fd5b505af11580156106d9573d6000803e3d6000fd5b5050505050565b6106e8610450565b1561075d57600960009054906101000a9004600160a060020a0316600160a060020a03166343d726d66040518163ffffffff1660e060020a028152600401600060405180830381600087803b15801561074057600080fd5b505af1158015610754573d6000803e3d6000fd5b505050506107c9565b600960009054906101000a9004600160a060020a0316600160a060020a0316638c52dc416040518163ffffffff1660e060020a028152600401600060405180830381600087803b1580156107b057600080fd5b505af11580156107c4573d6000803e3d6000fd5b505050505b6107cd5b565b6107d982826108bf565b6004546003546107ef908363ffffffff61064816565b111561062757600080fd5b600082151561080b57506000610642565b5081810281838281151561081b57fe5b041461064257fe5b60008054604080517fa9059cbb000000000000000000000000000000000000000000000000000000008152600160a060020a038681166004830152602482018690529151919092169263a9059cbb92604480820193602093909283900390910190829087803b15801561089557600080fd5b505af11580156108a9573d6000803e3d6000fd5b505050506040513d602081101561053f57600080fd5b600160a060020a03821615156108d457600080fd5b80151561062757600080fd00a165627a7a72305820ded4e11c7367ea51e7ae4d8697ace9372bf7627824aa9a9798cb8954d24601a00029608060405234801561001057600080fd5b506040516020806105fb833981016040525160008054600160a060020a03191633179055600160a060020a038116151561004957600080fd5b60028054600160a060020a031916600160a060020a03929092169190911760a060020a60ff0219169055610579806100826000396000f3006080604052600436106100985763ffffffff7c010000000000000000000000000000000000000000000000000000000060003504166343d726d6811461009d578063521eb273146100b45780638c52dc41146100e55780638da5cb5b146100fa578063c19d93fb1461010f578063cb13cddb14610148578063f2fde38b1461017b578063f340fa011461019c578063fa89401a146101b0575b600080fd5b3480156100a957600080fd5b506100b26101d1565b005b3480156100c057600080fd5b506100c96102a7565b60408051600160a060020a039092168252519081900360200190f35b3480156100f157600080fd5b506100b26102b6565b34801561010657600080fd5b506100c9610340565b34801561011b57600080fd5b5061012461034f565b6040518082600281111561013457fe5b60ff16815260200191505060405180910390f35b34801561015457600080fd5b50610169600160a060020a036004351661035f565b60408051918252519081900360200190f35b34801561018757600080fd5b506100b2600160a060020a0360043516610371565b6100b2600160a060020a0360043516610405565b3480156101bc57600080fd5b506100b2600160a060020a0360043516610485565b600054600160a060020a031633146101e857600080fd5b60006002805460a060020a900460ff169081111561020257fe5b1461020c57600080fd5b6002805474ff00000000000000000000000000000000000000001916740200000000000000000000000000000000000000001790556040517f1cdde67b72a90f19919ac732a437ac2f7a10fc128d28c2a6e525d89ce5cd9d3a90600090a1600254604051600160a060020a0390911690303180156108fc02916000818181858888f193505050501580156102a4573d6000803e3d6000fd5b50565b600254600160a060020a031681565b600054600160a060020a031633146102cd57600080fd5b60006002805460a060020a900460ff16908111156102e757fe5b146102f157600080fd5b6002805474ff0000000000000000000000000000000000000000191660a060020a1790556040517f599d8e5a83cffb867d051598c4d70e805d59802d8081c1c7d6dffc5b6aca2b8990600090a1565b600054600160a060020a031681565b60025460a060020a900460ff1681565b60016020526000908152604090205481565b600054600160a060020a0316331461038857600080fd5b600160a060020a038116151561039d57600080fd5b60008054604051600160a060020a03808516939216917f8be0079c531659141344cd1fd0a4f28419497f9722a3daafe3b4186f6b6457e091a36000805473ffffffffffffffffffffffffffffffffffffffff1916600160a060020a0392909216919091179055565b600054600160a060020a0316331461041c57600080fd5b60006002805460a060020a900460ff169081111561043657fe5b1461044057600080fd5b600160a060020a038116600090815260016020526040902054610469903463ffffffff61053a16565b600160a060020a03909116600090815260016020526040902055565b600060016002805460a060020a900460ff16908111156104a157fe5b146104ab57600080fd5b50600160a060020a038116600081815260016020526040808220805490839055905190929183156108fc02918491818181858888f193505050501580156104f6573d6000803e3d6000fd5b50604080518281529051600160a060020a038416917fd7dee2702d63ad89917b6a4da9981c90c4d24f8c2bdfd64c604ecae57d8d0651919081900360200190a25050565b8181018281101561054757fe5b929150505600a165627a7a723058202e74426092ea0cf5f3f84b40bc1894d9b894494b927a136fb4a52427e9a369010029",
  "source": "pragma solidity ^0.4.23;\n\nimport './SampleToken.sol';\nimport 'openzeppelin-solidity/contracts/crowdsale/validation/CappedCrowdsale.sol';\nimport 'openzeppelin-solidity/contracts/crowdsale/validation/TimedCrowdsale.sol';\nimport 'openzeppelin-solidity/contracts/crowdsale/distribution/RefundableCrowdsale.sol';\n\n\ncontract SampleCrowdsale is CappedCrowdsale, RefundableCrowdsale {\n\n    function SampleCrowdsale(uint256 _startTime, uint256 _endTime, uint256 _rate, address _wallet, uint256 _goal, uint256 _cap, MintableToken _token) CappedCrowdsale(_cap) FinalizableCrowdsale()\n        RefundableCrowdsale(_goal) TimedCrowdsale(_startTime, _endTime) Crowdsale(_rate, _wallet,_token) public {\n        require(_goal <= _cap);\n    }\n\n\n\n}\n",
  "sourcePath": "/Users/vamsee/Development/blockchain/pulse/oznew/contracts/SampleCrowdsale.sol",
  "compiler": {
    "name": "solc",
    "version": "0.4.24+commit.e67f0147.Emscripten.clang"
  },
  "schemaVersion": "2.0.0",
  "updatedAt": "2018-05-29T04:56:44.843Z"
}