{
  "contractName": "TestPlatform",
  "abi": [
    {
      "constant": true,
      "inputs": [],
      "name": "testToken",
      "outputs": [
        {
          "name": "",
          "type": "address"
        }
      ],
      "payable": false,
      "stateMutability": "view",
      "type": "function"
    },
    {
      "constant": false,
      "inputs": [],
      "name": "renounceOwnership",
      "outputs": [],
      "payable": false,
      "stateMutability": "nonpayable",
      "type": "function"
    },
    {
      "constant": true,
      "inputs": [],
      "name": "owner",
      "outputs": [
        {
          "name": "",
          "type": "address"
        }
      ],
      "payable": false,
      "stateMutability": "view",
      "type": "function"
    },
    {
      "constant": true,
      "inputs": [],
      "name": "isOwner",
      "outputs": [
        {
          "name": "",
          "type": "bool"
        }
      ],
      "payable": false,
      "stateMutability": "view",
      "type": "function"
    },
    {
      "constant": false,
      "inputs": [
        {
          "name": "newOwner",
          "type": "address"
        }
      ],
      "name": "transferOwnership",
      "outputs": [],
      "payable": false,
      "stateMutability": "nonpayable",
      "type": "function"
    },
    {
      "inputs": [
        {
          "name": "_testToken",
          "type": "address"
        }
      ],
      "payable": false,
      "stateMutability": "nonpayable",
      "type": "constructor"
    },
    {
      "anonymous": false,
      "inputs": [
        {
          "indexed": false,
          "name": "_message",
          "type": "string"
        },
        {
          "indexed": false,
          "name": "_value",
          "type": "uint256"
        }
      ],
      "name": "DebugEvent",
      "type": "event"
    },
    {
      "anonymous": false,
      "inputs": [
        {
          "indexed": false,
          "name": "_message",
          "type": "string"
        },
        {
          "indexed": false,
          "name": "_sender",
          "type": "address"
        }
      ],
      "name": "DebugEventAddress",
      "type": "event"
    },
    {
      "anonymous": false,
      "inputs": [
        {
          "indexed": false,
          "name": "_id",
          "type": "bytes12"
        },
        {
          "indexed": false,
          "name": "_buyer",
          "type": "address"
        },
        {
          "indexed": false,
          "name": "_catSubCat",
          "type": "string"
        },
        {
          "indexed": false,
          "name": "_escrow",
          "type": "address"
        }
      ],
      "name": "NewBIR",
      "type": "event"
    },
    {
      "anonymous": false,
      "inputs": [
        {
          "indexed": true,
          "name": "previousOwner",
          "type": "address"
        },
        {
          "indexed": true,
          "name": "newOwner",
          "type": "address"
        }
      ],
      "name": "OwnershipTransferred",
      "type": "event"
    },
    {
      "constant": false,
      "inputs": [
        {
          "name": "_id",
          "type": "bytes12"
        },
        {
          "name": "_buyer",
          "type": "address"
        },
        {
          "name": "_catSubCat",
          "type": "string"
        }
      ],
      "name": "createBIR",
      "outputs": [
        {
          "name": "success",
          "type": "bool"
        }
      ],
      "payable": false,
      "stateMutability": "nonpayable",
      "type": "function"
    },
    {
      "constant": false,
      "inputs": [
        {
          "name": "_id",
          "type": "bytes12"
        },
        {
          "name": "_actions",
          "type": "bytes4[]"
        },
        {
          "name": "_costs",
          "type": "uint256[]"
        }
      ],
      "name": "setActionCosts",
      "outputs": [
        {
          "name": "success",
          "type": "bool"
        }
      ],
      "payable": false,
      "stateMutability": "nonpayable",
      "type": "function"
    },
    {
      "constant": true,
      "inputs": [
        {
          "name": "_id",
          "type": "bytes12"
        }
      ],
      "name": "getBIR",
      "outputs": [
        {
          "name": "",
          "type": "address"
        },
        {
          "name": "",
          "type": "uint8"
        },
        {
          "name": "",
          "type": "string"
        },
        {
          "name": "",
          "type": "address"
        },
        {
          "name": "",
          "type": "uint256"
        }
      ],
      "payable": false,
      "stateMutability": "view",
      "type": "function"
    },
    {
      "constant": false,
      "inputs": [
        {
          "name": "_id",
          "type": "bytes12"
        },
        {
          "name": "_bidder",
          "type": "address"
        },
        {
          "name": "_actionType",
          "type": "bytes4"
        },
        {
          "name": "_bidHash",
          "type": "bytes32"
        },
        {
          "name": "_signedBidMessage",
          "type": "bytes"
        }
      ],
      "name": "sendBid",
      "outputs": [
        {
          "name": "success",
          "type": "bool"
        }
      ],
      "payable": false,
      "stateMutability": "nonpayable",
      "type": "function"
    },
    {
      "constant": true,
      "inputs": [
        {
          "name": "_id",
          "type": "bytes12"
        }
      ],
      "name": "getEscrowBalance",
      "outputs": [
        {
          "name": "",
          "type": "uint256"
        }
      ],
      "payable": false,
      "stateMutability": "view",
      "type": "function"
    },
    {
      "constant": false,
      "inputs": [
        {
          "name": "_id",
          "type": "bytes12"
        },
        {
          "name": "_payees",
          "type": "address[]"
        },
        {
          "name": "_payments",
          "type": "uint256[]"
        },
        {
          "name": "_buyerPayment",
          "type": "uint256"
        }
      ],
      "name": "settleBIR",
      "outputs": [
        {
          "name": "success",
          "type": "bool"
        }
      ],
      "payable": false,
      "stateMutability": "nonpayable",
      "type": "function"
    },
    {
      "constant": true,
      "inputs": [
        {
          "name": "hash",
          "type": "bytes32"
        },
        {
          "name": "sig",
          "type": "bytes"
        }
      ],
      "name": "recover",
      "outputs": [
        {
          "name": "",
          "type": "address"
        }
      ],
      "payable": false,
      "stateMutability": "pure",
      "type": "function"
    }
  ],
  "bytecode": "0x608060405234801561001057600080fd5b50604051602080611efd833981016040819052905160008054600160a060020a03191633178082559192600160a060020a0392909216917f8be0079c531659141344cd1fd0a4f28419497f9722a3daafe3b4186f6b6457e0908290a360018054600160a060020a031916600160a060020a0392909216919091179055611e628061009b6000396000f3006080604052600436106100a05763ffffffff60e060020a600035041663063acc6b81146100a55780630d36d678146100f357806319045a25146101925780632ffb949f1461020c5780636895179d1461024a578063715018a61461025f5780638da5cb5b146102765780638f32d59b1461028b578063b8b56e3c146102a0578063e5d79ac11461037f578063f214650f146103e4578063f2fde38b14610418575b600080fd5b3480156100b157600080fd5b506100df60048035600160a060020a0319169060248035808201929081013591604435908101910135610439565b604080519115158252519081900360200190f35b3480156100ff57600080fd5b506040805160206004602480358281013584810280870186019097528086526100df968435600160a060020a03191696369660449591949091019291829185019084908082843750506040805187358901803560208181028481018201909552818452989b9a99890198929750908201955093508392508501908490808284375094975050933594506105879350505050565b34801561019e57600080fd5b5060408051602060046024803582810135601f81018590048502860185019096528585526101f09583359536956044949193909101919081908401838280828437509497506106cb9650505050505050565b60408051600160a060020a039092168252519081900360200190f35b34801561021857600080fd5b506100df600160a060020a031960048035919091169060248035600160a060020a0316916044359182019101356106e4565b34801561025657600080fd5b506101f06109f4565b34801561026b57600080fd5b50610274610a03565b005b34801561028257600080fd5b506101f0610a60565b34801561029757600080fd5b506100df610a70565b3480156102ac57600080fd5b506102c2600160a060020a031960043516610a81565b604051600160a060020a0386168152602081018560028111156102e157fe5b60ff1681526020018060200184600160a060020a0316600160a060020a03168152602001838152602001828103825285818151815260200191508051906020019080838360005b83811015610340578181015183820152602001610328565b50505050905090810190601f16801561036d5780820380516001836020036101000a031916815260200191505b50965050505050505060405180910390f35b34801561038b57600080fd5b506100df600160a060020a031960048035919091169060248035600160a060020a0316917bffffffffffffffffffffffffffffffffffffffffffffffffffffffff19604435169160643591608435918201910135610c09565b3480156103f057600080fd5b50610406600160a060020a0319600435166112f2565b60408051918252519081900360200190f35b34801561042457600080fd5b50610274600160a060020a03600435166113a2565b600080600a8510610494576040805160e560020a62461bcd02815260206004820152601060248201527f546f6f206d616e7920616374696f6e7300000000000000000000000000000000604482015290519081900360640190fd5b600a83106104ec576040805160e560020a62461bcd02815260206004820152601560248201527f546f6f206d616e7920616374696f6e20636f7374730000000000000000000000604482015290519081900360640190fd5b5060005b8481101561057a5783838281811061050457fe5b600160a060020a03198a1660009081526003602081815260408320930294909401359391909101915088888581811061053957fe5b602090810292909201357bffffffffffffffffffffffffffffffffffffffffffffffffffffffff1916835250810191909152604001600020556001016104f0565b5060019695505050505050565b600160a060020a0319841660009081526004602081815260408084205490517f02594da0000000000000000000000000000000000000000000000000000000008152604481018690526060938101938452875160648201528751600160a060020a039092169384936302594da0938a938a938a9390928392602481019260849091019188820191028083838f5b8381101561062c578181015183820152602001610614565b50505050905001838103825285818151815260200191508051906020019060200280838360005b8381101561066b578181015183820152602001610653565b5050505090500195505050505050602060405180830381600087803b15801561069357600080fd5b505af11580156106a7573d6000803e3d6000fd5b505050506040513d60208110156106bd57600080fd5b506001979650505050505050565b60006106dd838363ffffffff6113c116565b9392505050565b60006106ee611506565b60408051608081018252600160a060020a031988168152600160a060020a03871660208201529081016000815260200185858080601f01602080910402602001604051908101604052809392919081815260200183838082843750505092909352505050600160a060020a031987166000908152600360209081526040918290208351815492850151600160a060020a03166c0100000000000000000000000002740100000000000000000000000000000000000000009091046bffffffffffffffffffffffff19909316929092176bffffffffffffffffffffffff1691909117815590820151600180830180549495508594909160ff19909116908360028111156107f657fe5b02179055506060820151805161081691600284019160209091019061152c565b505050600160a060020a038086166000908152600260208181526040808420600160a060020a03198c16855282529283902085518154928701519095166c0100000000000000000000000002740100000000000000000000000000000000000000009095046bffffffffffffffffffffffff19909216919091176bffffffffffffffffffffffff169390931783559083015160018084018054869594919260ff199091169184908111156108c657fe5b0217905550606082015180516108e691600284019160209091019061152c565b50506001548791508690600160a060020a03166109016115aa565b600160a060020a03199093168352600160a060020a039182166020840152166040808301919091525190819003606001906000f080158015610947573d6000803e3d6000fd5b50600160a060020a03198781166000818152600460209081526040918290208054909416600160a060020a039586161793849055815192835289851690830152919092166060830181905260809183018281529183018690527fee496c9f72f645a5e3666c514f87a307347bb3ba2f768e3dcb732ed88dca122092899289928992899260a0820185858082843760405192018290039850909650505050505050a150600195945050505050565b600154600160a060020a031681565b610a0b610a70565b1515610a1657600080fd5b60008054604051600160a060020a03909116907f8be0079c531659141344cd1fd0a4f28419497f9722a3daafe3b4186f6b6457e0908390a360008054600160a060020a0319169055565b600054600160a060020a03165b90565b600054600160a060020a0316331490565b600160a060020a0319811660009081526003602090815260408083206004808452828520548254600180850154905486517f70a08231000000000000000000000000000000000000000000000000000000008152600160a060020a036c010000000000000000000000009094048416958101869052965189986060988a9889989097871696909560ff16946002890194889492909116926370a0823192602480830193919282900301818d87803b158015610b3b57600080fd5b505af1158015610b4f573d6000803e3d6000fd5b505050506040513d6020811015610b6557600080fd5b50518254604080516020601f60026000196101006001881615020190951694909404938401819004810282018101909252828152918591830182828015610bed5780601f10610bc257610100808354040283529160200191610bed565b820191906000526020600020905b815481529060010190602001808311610bd057829003601f168201915b5050505050925096509650965096509650505091939590929450565b600080600080610c176115ba565b60008a600160a060020a0316610c6c89898080601f0160208091040260200160405190810160405280939291908181526020018383808284378201915050505050508b600019166113c190919063ffffffff16565b600160a060020a031614610cca576040805160e560020a62461bcd02815260206004820152601d60248201527f426964646572205369676e617475726520636865636b206661696c6564000000604482015290519081900360640190fd5b600360008d600160a060020a031916600160a060020a031916815260200190815260200160002060030160008b7bffffffffffffffffffffffffffffffffffffffffffffffffffffffff19167bffffffffffffffffffffffffffffffffffffffffffffffffffffffff1916815260200190815260200160002054945084600160009054906101000a9004600160a060020a0316600160a060020a03166370a082318d6040518263ffffffff1660e060020a0281526004018082600160a060020a0316600160a060020a03168152602001915050602060405180830381600087803b158015610db757600080fd5b505af1158015610dcb573d6000803e3d6000fd5b505050506040513d6020811015610de157600080fd5b505111610e5e576040805160e560020a62461bcd02815260206004820152602160248201527f62696464657220646f6573206e6f74206861766520656e6f7567682070756c7360448201527f6500000000000000000000000000000000000000000000000000000000000000606482015290519081900360840190fd5b600154604080517fdd62ed3e000000000000000000000000000000000000000000000000000000008152600160a060020a038e81166004830152306024830181905292519297509092169163dd62ed3e9160448083019260209291908290030181600087803b158015610ed057600080fd5b505af1158015610ee4573d6000803e3d6000fd5b505050506040513d6020811015610efa57600080fd5b50519250848311610f7b576040805160e560020a62461bcd02815260206004820152603360248201527f62696464657220646964206e6f742070726f7669646520656e6f75676820616c60448201527f6c6f77616e636520666f72207468652062696400000000000000000000000000606482015290519081900360840190fd5b6040805160208101859052818152601a818301527f53656e6465722053656e64657220416c6c6f77616e6365206973000000000000606082015290517f7896124430355ea9a2e8a41136ae8f37ec84f6a07c108a3a75a070e526e0f2d99181900360800190a16080604051908101604052808c600160a060020a031681526020018b7bffffffffffffffffffffffffffffffffffffffffffffffffffffffff191681526020017f30783000000000000000000000000000000000000000000000000000000000006000191681526020017f307830000000000000000000000000000000000000000000000000000000000060001916815250915081600360008e600160a060020a031916600160a060020a031916815260200190815260200160002060040160008d600160a060020a0316600160a060020a0316815260200190815260200160002060008201518160000160006101000a815481600160a060020a030219169083600160a060020a0316021790555060208201518160000160146101000a81548163ffffffff021916908360e060020a9004021790555060408201518160020190600019169055606082015181600301906000191690559050506001600360008e600160a060020a031916600160a060020a031916815260200190815260200160002060010160006101000a81548160ff0219169083600281111561118257fe5b0217905550600154604080517f23b872dd000000000000000000000000000000000000000000000000000000008152600160a060020a038e81166004830152878116602483015260448201899052915191909216916323b872dd9160648083019260209291908290030181600087803b1580156111fe57600080fd5b505af1158015611212573d6000803e3d6000fd5b505050506040513d602081101561122857600080fd5b505050600160a060020a03198b1660009081526004602081815260408084205460015482517fa9059cbb000000000000000000000000000000000000000000000000000000008152600160a060020a03928316958101869052602481018b90529251949591169363a9059cbb936044808501949193918390030190829087803b1580156112b457600080fd5b505af11580156112c8573d6000803e3d6000fd5b505050506040513d60208110156112de57600080fd5b5060019d9c50505050505050505050505050565b600160a060020a0319811660009081526004602081815260408084205460015482517f70a08231000000000000000000000000000000000000000000000000000000008152600160a060020a0392831695810186905292519116926370a08231926024808201939182900301818887803b15801561136f57600080fd5b505af1158015611383573d6000803e3d6000fd5b505050506040513d602081101561139957600080fd5b50519392505050565b6113aa610a70565b15156113b557600080fd5b6113be81611496565b50565b600080600080845160411415156113db576000935061148d565b50505060208201516040830151606084015160001a601b60ff8216101561140057601b015b8060ff16601b1415801561141857508060ff16601c14155b15611426576000935061148d565b60408051600080825260208083018085528a905260ff8516838501526060830187905260808301869052925160019360a0808501949193601f19840193928390039091019190865af1158015611480573d6000803e3d6000fd5b5050506020604051035193505b50505092915050565b600160a060020a03811615156114ab57600080fd5b60008054604051600160a060020a03808516939216917f8be0079c531659141344cd1fd0a4f28419497f9722a3daafe3b4186f6b6457e091a360008054600160a060020a031916600160a060020a0392909216919091179055565b604080516080810182526000808252602082018190529181019190915260608082015290565b828054600181600116156101000203166002900490600052602060002090601f016020900481019282601f1061156d57805160ff191683800117855561159a565b8280016001018555821561159a579182015b8281111561159a57825182559160200191906001019061157f565b506115a69291506115e1565b5090565b60405161083b806115fc83390190565b60408051608081018252600080825260208201819052918101829052606081019190915290565b610a6d91905b808211156115a657600081556001016115e75600608060405234801561001057600080fd5b5060405160608061083b83398101604081815282516020840151919093015160008054600160a060020a031916331780825592939192600160a060020a0316917f8be0079c531659141344cd1fd0a4f28419497f9722a3daafe3b4186f6b6457e0908290a3600080547401000000000000000000000000000000000000000080860402600160a060020a039182161790915560018054848316600160a060020a031991821681179092556002805493851693821693909317909255604080519286168352602083019190915280517f26382d92c390156972f925fc09b6b2809958238815f1ea54eeee9b4505c5daa89281900390910190a15050506107218061011a6000396000f3006080604052600436106100985763ffffffff7c010000000000000000000000000000000000000000000000000000000060003504166302594da0811461009d578063370158ea146101415780636895179d14610190578063715018a6146101c15780637150d8ae146101d857806375488990146101ed5780638da5cb5b1461022c5780638f32d59b14610241578063f2fde38b14610256575b600080fd5b3480156100a957600080fd5b506040805160206004803580820135838102808601850190965280855261012d95369593946024949385019291829185019084908082843750506040805187358901803560208181028481018201909552818452989b9a99890198929750908201955093508392508501908490808284375094975050933594506102779350505050565b604080519115158252519081900360200190f35b34801561014d57600080fd5b5061015661055f565b6040805173ffffffffffffffffffffffffffffffffffffffff199093168352600160a060020a039190911660208301528051918290030190f35b34801561019c57600080fd5b506101a5610590565b60408051600160a060020a039092168252519081900360200190f35b3480156101cd57600080fd5b506101d661059f565b005b3480156101e457600080fd5b506101a5610609565b3480156101f957600080fd5b50610202610618565b6040805173ffffffffffffffffffffffffffffffffffffffff199092168252519081900360200190f35b34801561023857600080fd5b506101a5610639565b34801561024d57600080fd5b5061012d610648565b34801561026257600080fd5b506101d6600160a060020a0360043516610659565b600080600a85511015156102ec57604080517f08c379a000000000000000000000000000000000000000000000000000000000815260206004820152600f60248201527f546f6f206d616e79207061796573730000000000000000000000000000000000604482015290519081900360640190fd5b8351600a1161035c57604080517f08c379a000000000000000000000000000000000000000000000000000000000815260206004820152601160248201527f546f6f206d616e79207061796d656e7473000000000000000000000000000000604482015290519081900360640190fd5b5060015b845181101561044d576002548551600160a060020a039091169063a9059cbb9087908490811061038c57fe5b9060200190602002015186848151811015156103a457fe5b906020019060200201516040518363ffffffff167c01000000000000000000000000000000000000000000000000000000000281526004018083600160a060020a0316600160a060020a0316815260200182815260200192505050602060405180830381600087803b15801561041957600080fd5b505af115801561042d573d6000803e3d6000fd5b505050506040513d602081101561044357600080fd5b5050600101610360565b600254600154604080517fa9059cbb000000000000000000000000000000000000000000000000000000008152600160a060020a039283166004820152602481018790529051919092169163a9059cbb9160448083019260209291908290030181600087803b1580156104bf57600080fd5b505af11580156104d3573d6000803e3d6000fd5b505050506040513d60208110156104e957600080fd5b505060005460408051740100000000000000000000000000000000000000009283900490920273ffffffffffffffffffffffffffffffffffffffff19168252517f8ffee91bcd3df7949b4298a57b51d05ef4de18ebe56f88c9e4590a6ff80bae1b916020908290030190a1506001949350505050565b600054600154740100000000000000000000000000000000000000009182900490910290600160a060020a03169091565b600254600160a060020a031681565b6105a7610648565b15156105b257600080fd5b60008054604051600160a060020a03909116907f8be0079c531659141344cd1fd0a4f28419497f9722a3daafe3b4186f6b6457e0908390a36000805473ffffffffffffffffffffffffffffffffffffffff19169055565b600154600160a060020a031681565b60005474010000000000000000000000000000000000000000908190040281565b600054600160a060020a031690565b600054600160a060020a0316331490565b610661610648565b151561066c57600080fd5b61067581610678565b50565b600160a060020a038116151561068d57600080fd5b60008054604051600160a060020a03808516939216917f8be0079c531659141344cd1fd0a4f28419497f9722a3daafe3b4186f6b6457e091a36000805473ffffffffffffffffffffffffffffffffffffffff1916600160a060020a03929092169190911790555600a165627a7a7230582068132b499edd4f5d7330fe7fcc7ba1ce0618dd3b42cb23593250896cfd2ffc900029a165627a7a72305820488fc305a19433511baab661715bb968690ed003727ce0b265063aab83348d900029",
  "source": "pragma solidity ^0.4.24;\n\nimport 'openzeppelin-solidity/contracts/ownership/Ownable.sol';\nimport 'openzeppelin-solidity/contracts/token/ERC20/ERC20.sol';\nimport 'openzeppelin-solidity/contracts/cryptography/ECDSA.sol';\nimport './TestEscrow.sol';\n\ncontract TestPlatform is Ownable {\n\n    ERC20 public testToken;\n\n\n    constructor(ERC20 _testToken) Ownable() public {\n        testToken = _testToken;\n    }\n\n    event DebugEvent(string _message, uint256 _value);\n    event DebugEventAddress(string _message, address _sender);\n\n\n    enum BIRState {Created, Responded,  Settled}\n    mapping(address => mapping (bytes12 => BIR)) buyerBIRs;\n    mapping (bytes12 => BIR) birs;\n    mapping (bytes12 => address) birEscrow;\n    event NewBIR(bytes12 _id, address _buyer, string _catSubCat, address _escrow);\n\n\n    struct BIR {\n        bytes12 id;\n        address buyer;\n        BIRState state;\n        string catSubCat;\n        // action costs\n        mapping (bytes4 => uint256) actionCosts;\n        mapping (address => Bid) sellers;\n    }\n\n    struct Bid {\n        address bidder; // could be seller or expert\n        bytes4 actionType; // CPO, CPA, CPC etc should this be a enum?\n\n        //List of Actions taken by the buyer (open, conversation, appointment, etc.) under each matched seller for the specific birID.\n        mapping (bytes4 => bool) buyerActions;\n\n        /*\n         Bid payment transaction. only populated for the seller. We may not need to store it here\n         if we send the BIR id along with the payment to the escrow\n        */\n        bytes32 paymentTx; // TODO: populate\n        bytes32 settlementTx;\n    }\n\n    function createBIR(bytes12 _id, address _buyer, string _catSubCat) external returns (bool success){\n\n        BIR memory bir = BIR({id: _id, buyer: _buyer, state: BIRState.Created, catSubCat: _catSubCat});\n        birs[_id] = bir;\n        buyerBIRs[_buyer][_id] = bir;\n        birEscrow[_id] = address(new TestEscrow(_id, _buyer, testToken));\n        emit NewBIR(_id,_buyer, _catSubCat, birEscrow[_id]);\n        return true;\n    }\n\n    function setActionCosts(bytes12 _id, bytes4[] _actions, uint256[] _costs)\n    external returns(bool success) {\n        require(_actions.length < 10, \"Too many actions\");\n        require(_costs.length < 10, \"Too many action costs\");\n\n        for (uint i = 0; i < _actions.length; i++) {\n            birs[_id].actionCosts[_actions[i]] = _costs[i];\n        }\n\n        return true;\n    }\n\n    function getBIR(bytes12 _id) view external returns (address, BIRState, string, address, uint) {\n        BIR storage bir = birs[_id];\n        address escrow = birEscrow[_id];\n        return (bir.buyer, bir.state, bir.catSubCat, escrow,  testToken.balanceOf(bir.buyer));\n    }\n\n\n    function sendBid(bytes12 _id, address _bidder, bytes4 _actionType,  bytes32 _bidHash,bytes _signedBidMessage)  external returns (bool success) {\n        require(_bidHash.recover(_signedBidMessage) == _bidder, \"Bidder Signature check failed\");\n\n        uint256  bidCost = birs[_id].actionCosts[_actionType];\n        require(testToken.balanceOf(_bidder) > bidCost, \"bidder does not have enough pulse\");\n\n        address me = address(this);\n        uint256 allowance = testToken.allowance(_bidder, me);\n        require(allowance > bidCost, \"bidder did not provide enough allowance for the bid\");\n        emit DebugEvent(\"Sender Sender Allowance is\", allowance);\n\n        // create the Bid\n        Bid memory sBid = Bid({bidder:_bidder, actionType:_actionType, paymentTx:'0x0', settlementTx:'0x0'});\n        birs[_id].sellers[_bidder] = sBid;\n        birs[_id].state = BIRState.Responded;\n\n        // first transfer  the bid Pulse from seller to this contract as allowance is for this contract.\n        testToken.transferFrom(_bidder, me, bidCost);\n        address escrow = birEscrow[_id];\n\n        // now transfer bid pulse to the intent specific escrow\n        testToken.transfer(escrow,bidCost);\n        return true;\n    }\n\n    function getEscrowBalance(bytes12 _id) view external returns (uint256) {\n        address escrow = birEscrow[_id];\n        return testToken.balanceOf(escrow);\n    }\n\n    function settleBIR(bytes12 _id, address [] _payees, uint256[] _payments, uint256 _buyerPayment) public returns (bool success) {\n        TestEscrow escrow = TestEscrow(birEscrow[_id]);\n        escrow.distributeFunds(_payees, _payments, _buyerPayment);\n        return true;\n    }\n\n    using ECDSA for bytes32;\n    function recover(bytes32 hash, bytes sig) public pure returns (address) {\n        return hash.recover(sig);\n    }\n\n}\n",
  "sourcePath": "/Users/vamsee/Development/blockchain/pulse/oz-sample-app/contracts/TestPlatform.sol",
  "compiler": {
    "name": "solc",
    "version": "0.4.25+commit.59dbf8f1.Emscripten.clang"
  },
  "schemaVersion": "3.0.0-beta.1",
  "updatedAt": "2018-10-30T11:37:43.670Z",
  "devdoc": {
    "methods": {
      "isOwner()": {
        "return": "true if `msg.sender` is the owner of the contract."
      },
      "owner()": {
        "return": "the address of the owner."
      },
      "renounceOwnership()": {
        "details": "Allows the current owner to relinquish control of the contract."
      },
      "transferOwnership(address)": {
        "details": "Allows the current owner to transfer control of the contract to a newOwner.",
        "params": {
          "newOwner": "The address to transfer ownership to."
        }
      }
    }
  },
  "userdoc": {
    "methods": {
      "renounceOwnership()": {
        "notice": "Renouncing to ownership will leave the contract without an owner. It will not be possible to call the functions with the `onlyOwner` modifier anymore."
      }
    }
  }
}