{
  "contractName": "TestToken",
  "abi": [
    {
      "constant": true,
      "inputs": [],
      "name": "name",
      "outputs": [
        {
          "name": "",
          "type": "string"
        }
      ],
      "payable": false,
      "stateMutability": "view",
      "type": "function"
    },
    {
      "constant": false,
      "inputs": [
        {
          "name": "spender",
          "type": "address"
        },
        {
          "name": "value",
          "type": "uint256"
        }
      ],
      "name": "approve",
      "outputs": [
        {
          "name": "",
          "type": "bool"
        }
      ],
      "payable": false,
      "stateMutability": "nonpayable",
      "type": "function"
    },
    {
      "constant": true,
      "inputs": [],
      "name": "totalSupply",
      "outputs": [
        {
          "name": "",
          "type": "uint256"
        }
      ],
      "payable": false,
      "stateMutability": "view",
      "type": "function"
    },
    {
      "constant": false,
      "inputs": [
        {
          "name": "from",
          "type": "address"
        },
        {
          "name": "to",
          "type": "address"
        },
        {
          "name": "value",
          "type": "uint256"
        }
      ],
      "name": "transferFrom",
      "outputs": [
        {
          "name": "",
          "type": "bool"
        }
      ],
      "payable": false,
      "stateMutability": "nonpayable",
      "type": "function"
    },
    {
      "constant": true,
      "inputs": [],
      "name": "decimals",
      "outputs": [
        {
          "name": "",
          "type": "uint8"
        }
      ],
      "payable": false,
      "stateMutability": "view",
      "type": "function"
    },
    {
      "constant": false,
      "inputs": [
        {
          "name": "spender",
          "type": "address"
        },
        {
          "name": "addedValue",
          "type": "uint256"
        }
      ],
      "name": "increaseAllowance",
      "outputs": [
        {
          "name": "success",
          "type": "bool"
        }
      ],
      "payable": false,
      "stateMutability": "nonpayable",
      "type": "function"
    },
    {
      "constant": false,
      "inputs": [],
      "name": "unpause",
      "outputs": [],
      "payable": false,
      "stateMutability": "nonpayable",
      "type": "function"
    },
    {
      "constant": false,
      "inputs": [
        {
          "name": "to",
          "type": "address"
        },
        {
          "name": "value",
          "type": "uint256"
        }
      ],
      "name": "mint",
      "outputs": [
        {
          "name": "",
          "type": "bool"
        }
      ],
      "payable": false,
      "stateMutability": "nonpayable",
      "type": "function"
    },
    {
      "constant": false,
      "inputs": [
        {
          "name": "value",
          "type": "uint256"
        }
      ],
      "name": "burn",
      "outputs": [],
      "payable": false,
      "stateMutability": "nonpayable",
      "type": "function"
    },
    {
      "constant": true,
      "inputs": [
        {
          "name": "account",
          "type": "address"
        }
      ],
      "name": "isPauser",
      "outputs": [
        {
          "name": "",
          "type": "bool"
        }
      ],
      "payable": false,
      "stateMutability": "view",
      "type": "function"
    },
    {
      "constant": true,
      "inputs": [],
      "name": "paused",
      "outputs": [
        {
          "name": "",
          "type": "bool"
        }
      ],
      "payable": false,
      "stateMutability": "view",
      "type": "function"
    },
    {
      "constant": false,
      "inputs": [],
      "name": "renouncePauser",
      "outputs": [],
      "payable": false,
      "stateMutability": "nonpayable",
      "type": "function"
    },
    {
      "constant": true,
      "inputs": [
        {
          "name": "owner",
          "type": "address"
        }
      ],
      "name": "balanceOf",
      "outputs": [
        {
          "name": "",
          "type": "uint256"
        }
      ],
      "payable": false,
      "stateMutability": "view",
      "type": "function"
    },
    {
      "constant": false,
      "inputs": [],
      "name": "renounceOwnership",
      "outputs": [],
      "payable": false,
      "stateMutability": "nonpayable",
      "type": "function"
    },
    {
      "constant": false,
      "inputs": [
        {
          "name": "from",
          "type": "address"
        },
        {
          "name": "value",
          "type": "uint256"
        }
      ],
      "name": "burnFrom",
      "outputs": [],
      "payable": false,
      "stateMutability": "nonpayable",
      "type": "function"
    },
    {
      "constant": false,
      "inputs": [
        {
          "name": "account",
          "type": "address"
        }
      ],
      "name": "addPauser",
      "outputs": [],
      "payable": false,
      "stateMutability": "nonpayable",
      "type": "function"
    },
    {
      "constant": false,
      "inputs": [],
      "name": "pause",
      "outputs": [],
      "payable": false,
      "stateMutability": "nonpayable",
      "type": "function"
    },
    {
      "constant": true,
      "inputs": [],
      "name": "owner",
      "outputs": [
        {
          "name": "",
          "type": "address"
        }
      ],
      "payable": false,
      "stateMutability": "view",
      "type": "function"
    },
    {
      "constant": true,
      "inputs": [],
      "name": "isOwner",
      "outputs": [
        {
          "name": "",
          "type": "bool"
        }
      ],
      "payable": false,
      "stateMutability": "view",
      "type": "function"
    },
    {
      "constant": true,
      "inputs": [],
      "name": "symbol",
      "outputs": [
        {
          "name": "",
          "type": "string"
        }
      ],
      "payable": false,
      "stateMutability": "view",
      "type": "function"
    },
    {
      "constant": false,
      "inputs": [
        {
          "name": "account",
          "type": "address"
        }
      ],
      "name": "addMinter",
      "outputs": [],
      "payable": false,
      "stateMutability": "nonpayable",
      "type": "function"
    },
    {
      "constant": false,
      "inputs": [],
      "name": "renounceMinter",
      "outputs": [],
      "payable": false,
      "stateMutability": "nonpayable",
      "type": "function"
    },
    {
      "constant": false,
      "inputs": [
        {
          "name": "spender",
          "type": "address"
        },
        {
          "name": "subtractedValue",
          "type": "uint256"
        }
      ],
      "name": "decreaseAllowance",
      "outputs": [
        {
          "name": "success",
          "type": "bool"
        }
      ],
      "payable": false,
      "stateMutability": "nonpayable",
      "type": "function"
    },
    {
      "constant": false,
      "inputs": [
        {
          "name": "to",
          "type": "address"
        },
        {
          "name": "value",
          "type": "uint256"
        }
      ],
      "name": "transfer",
      "outputs": [
        {
          "name": "",
          "type": "bool"
        }
      ],
      "payable": false,
      "stateMutability": "nonpayable",
      "type": "function"
    },
    {
      "constant": true,
      "inputs": [
        {
          "name": "account",
          "type": "address"
        }
      ],
      "name": "isMinter",
      "outputs": [
        {
          "name": "",
          "type": "bool"
        }
      ],
      "payable": false,
      "stateMutability": "view",
      "type": "function"
    },
    {
      "constant": true,
      "inputs": [
        {
          "name": "owner",
          "type": "address"
        },
        {
          "name": "spender",
          "type": "address"
        }
      ],
      "name": "allowance",
      "outputs": [
        {
          "name": "",
          "type": "uint256"
        }
      ],
      "payable": false,
      "stateMutability": "view",
      "type": "function"
    },
    {
      "constant": false,
      "inputs": [
        {
          "name": "newOwner",
          "type": "address"
        }
      ],
      "name": "transferOwnership",
      "outputs": [],
      "payable": false,
      "stateMutability": "nonpayable",
      "type": "function"
    },
    {
      "anonymous": false,
      "inputs": [
        {
          "indexed": true,
          "name": "previousOwner",
          "type": "address"
        },
        {
          "indexed": true,
          "name": "newOwner",
          "type": "address"
        }
      ],
      "name": "OwnershipTransferred",
      "type": "event"
    },
    {
      "anonymous": false,
      "inputs": [
        {
          "indexed": true,
          "name": "account",
          "type": "address"
        }
      ],
      "name": "MinterAdded",
      "type": "event"
    },
    {
      "anonymous": false,
      "inputs": [
        {
          "indexed": true,
          "name": "account",
          "type": "address"
        }
      ],
      "name": "MinterRemoved",
      "type": "event"
    },
    {
      "anonymous": false,
      "inputs": [
        {
          "indexed": false,
          "name": "account",
          "type": "address"
        }
      ],
      "name": "Paused",
      "type": "event"
    },
    {
      "anonymous": false,
      "inputs": [
        {
          "indexed": false,
          "name": "account",
          "type": "address"
        }
      ],
      "name": "Unpaused",
      "type": "event"
    },
    {
      "anonymous": false,
      "inputs": [
        {
          "indexed": true,
          "name": "account",
          "type": "address"
        }
      ],
      "name": "PauserAdded",
      "type": "event"
    },
    {
      "anonymous": false,
      "inputs": [
        {
          "indexed": true,
          "name": "account",
          "type": "address"
        }
      ],
      "name": "PauserRemoved",
      "type": "event"
    },
    {
      "anonymous": false,
      "inputs": [
        {
          "indexed": true,
          "name": "from",
          "type": "address"
        },
        {
          "indexed": true,
          "name": "to",
          "type": "address"
        },
        {
          "indexed": false,
          "name": "value",
          "type": "uint256"
        }
      ],
      "name": "Transfer",
      "type": "event"
    },
    {
      "anonymous": false,
      "inputs": [
        {
          "indexed": true,
          "name": "owner",
          "type": "address"
        },
        {
          "indexed": true,
          "name": "spender",
          "type": "address"
        },
        {
          "indexed": false,
          "name": "value",
          "type": "uint256"
        }
      ],
      "name": "Approval",
      "type": "event"
    }
  ],
  "bytecode": "0x60c0604052600a60808190527f5465737420546f6b656e0000000000000000000000000000000000000000000060a090815262000040916007919062000250565b506040805180820190915260048082527f54455354000000000000000000000000000000000000000000000000000000006020909201918252620000879160089162000250565b506009805460ff19166012179055620000a93364010000000062000119810204565b6004805460ff19169055620000c7336401000000006200016b810204565b60068054600160a060020a031916331790819055604051600160a060020a0391909116906000907f8be0079c531659141344cd1fd0a4f28419497f9722a3daafe3b4186f6b6457e0908290a3620002f5565b62000134600382640100000000620010b4620001bd82021704565b604051600160a060020a038216907f6719d08c1888103bea251a4ed56406bd0c3e69723c8a1686e017e7bbe159b6f890600090a250565b62000186600582640100000000620010b4620001bd82021704565b604051600160a060020a038216907f6ae172837ea30b801fbfcdd4108aa1d5bf8ff775444fd70256b44e6bf3dfc3f690600090a250565b600160a060020a0381161515620001d357600080fd5b620001e8828264010000000062000218810204565b15620001f357600080fd5b600160a060020a0316600090815260209190915260409020805460ff19166001179055565b6000600160a060020a03821615156200023057600080fd5b50600160a060020a03166000908152602091909152604090205460ff1690565b828054600181600116156101000203166002900490600052602060002090601f016020900481019282601f106200029357805160ff1916838001178555620002c3565b82800160010185558215620002c3579182015b82811115620002c3578251825591602001919060010190620002a6565b50620002d1929150620002d5565b5090565b620002f291905b80821115620002d15760008155600101620002dc565b90565b61112e80620003056000396000f30060806040526004361061015e5763ffffffff7c010000000000000000000000000000000000000000000000000000000060003504166306fdde038114610163578063095ea7b3146101ed57806318160ddd1461022557806323b872dd1461024c578063313ce5671461027657806339509351146102a15780633f4ba83a146102c557806340c10f19146102dc57806342966c681461030057806346fbf68e146103185780635c975abb146103395780636ef8d66d1461034e57806370a0823114610363578063715018a61461038457806379cc67901461039957806382dc1ec4146103bd5780638456cb59146103de5780638da5cb5b146103f35780638f32d59b1461042457806395d89b4114610439578063983b2d561461044e578063986502751461046f578063a457c2d714610484578063a9059cbb146104a8578063aa271e1a146104cc578063dd62ed3e146104ed578063f2fde38b14610514575b600080fd5b34801561016f57600080fd5b50610178610535565b6040805160208082528351818301528351919283929083019185019080838360005b838110156101b257818101518382015260200161019a565b50505050905090810190601f1680156101df5780820380516001836020036101000a031916815260200191505b509250505060405180910390f35b3480156101f957600080fd5b50610211600160a060020a03600435166024356105c3565b604080519115158252519081900360200190f35b34801561023157600080fd5b5061023a6105e7565b60408051918252519081900360200190f35b34801561025857600080fd5b50610211600160a060020a03600435811690602435166044356105ed565b34801561028257600080fd5b5061028b610613565b6040805160ff9092168252519081900360200190f35b3480156102ad57600080fd5b50610211600160a060020a036004351660243561061c565b3480156102d157600080fd5b506102da610639565b005b3480156102e857600080fd5b50610211600160a060020a036004351660243561069d565b34801561030c57600080fd5b506102da6004356106c6565b34801561032457600080fd5b50610211600160a060020a03600435166106d3565b34801561034557600080fd5b506102116106ec565b34801561035a57600080fd5b506102da6106f5565b34801561036f57600080fd5b5061023a600160a060020a0360043516610700565b34801561039057600080fd5b506102da61071b565b3480156103a557600080fd5b506102da600160a060020a0360043516602435610785565b3480156103c957600080fd5b506102da600160a060020a0360043516610793565b3480156103ea57600080fd5b506102da6107b0565b3480156103ff57600080fd5b50610408610816565b60408051600160a060020a039092168252519081900360200190f35b34801561043057600080fd5b50610211610825565b34801561044557600080fd5b50610178610836565b34801561045a57600080fd5b506102da600160a060020a0360043516610891565b34801561047b57600080fd5b506102da6108ae565b34801561049057600080fd5b50610211600160a060020a03600435166024356108b7565b3480156104b457600080fd5b50610211600160a060020a03600435166024356108d4565b3480156104d857600080fd5b50610211600160a060020a03600435166108f1565b3480156104f957600080fd5b5061023a600160a060020a0360043581169060243516610904565b34801561052057600080fd5b506102da600160a060020a036004351661092f565b6007805460408051602060026001851615610100026000190190941693909304601f810184900484028201840190925281815292918301828280156105bb5780601f10610590576101008083540402835291602001916105bb565b820191906000526020600020905b81548152906001019060200180831161059e57829003601f168201915b505050505081565b60045460009060ff16156105d657600080fd5b6105e0838361094b565b9392505050565b60025490565b60045460009060ff161561060057600080fd5b61060b8484846109c9565b949350505050565b60095460ff1681565b60045460009060ff161561062f57600080fd5b6105e08383610a66565b610642336106d3565b151561064d57600080fd5b60045460ff16151561065e57600080fd5b6004805460ff191690556040805133815290517f5db9ee0a495bf2e6ff9c91a7834c1ba4fdd244a5e8aa4e537bd38aeae4b073aa9181900360200190a1565b60006106a8336108f1565b15156106b357600080fd5b6106bd8383610b16565b50600192915050565b6106d03382610bc0565b50565b60006106e660038363ffffffff610c8e16565b92915050565b60045460ff1690565b6106fe33610cc5565b565b600160a060020a031660009081526020819052604090205490565b610723610825565b151561072e57600080fd5b600654604051600091600160a060020a0316907f8be0079c531659141344cd1fd0a4f28419497f9722a3daafe3b4186f6b6457e0908390a36006805473ffffffffffffffffffffffffffffffffffffffff19169055565b61078f8282610d0d565b5050565b61079c336106d3565b15156107a757600080fd5b6106d081610d9f565b6107b9336106d3565b15156107c457600080fd5b60045460ff16156107d457600080fd5b6004805460ff191660011790556040805133815290517f62e78cea01bee320cd4e420270b5ea74000d11b0c9f74754ebdbfc544b05a2589181900360200190a1565b600654600160a060020a031690565b600654600160a060020a0316331490565b6008805460408051602060026001851615610100026000190190941693909304601f810184900484028201840190925281815292918301828280156105bb5780601f10610590576101008083540402835291602001916105bb565b61089a336108f1565b15156108a557600080fd5b6106d081610de7565b6106fe33610e2f565b60045460009060ff16156108ca57600080fd5b6105e08383610e77565b60045460009060ff16156108e757600080fd5b6105e08383610ec2565b60006106e660058363ffffffff610c8e16565b600160a060020a03918216600090815260016020908152604080832093909416825291909152205490565b610937610825565b151561094257600080fd5b6106d081610ecf565b6000600160a060020a038316151561096257600080fd5b336000818152600160209081526040808320600160a060020a03881680855290835292819020869055805186815290519293927f8c5be1e5ebec7d5bd14f71427d1e84f3dd0314c0f7b2291e5b200ac8c7c3b925929181900390910190a350600192915050565b600160a060020a03831660009081526001602090815260408083203384529091528120548211156109f957600080fd5b600160a060020a0384166000908152600160209081526040808320338452909152902054610a2d908363ffffffff610f4d16565b600160a060020a0385166000908152600160209081526040808320338452909152902055610a5c848484610f64565b5060019392505050565b6000600160a060020a0383161515610a7d57600080fd5b336000908152600160209081526040808320600160a060020a0387168452909152902054610ab1908363ffffffff61105616565b336000818152600160209081526040808320600160a060020a0389168085529083529281902085905580519485525191937f8c5be1e5ebec7d5bd14f71427d1e84f3dd0314c0f7b2291e5b200ac8c7c3b925929081900390910190a350600192915050565b600160a060020a0382161515610b2b57600080fd5b600254610b3e908263ffffffff61105616565b600255600160a060020a038216600090815260208190526040902054610b6a908263ffffffff61105616565b600160a060020a0383166000818152602081815260408083209490945583518581529351929391927fddf252ad1be2c89b69c2b068fc378daa952ba7f163c4a11628f55a4df523b3ef9281900390910190a35050565b600160a060020a0382161515610bd557600080fd5b600160a060020a038216600090815260208190526040902054811115610bfa57600080fd5b600254610c0d908263ffffffff610f4d16565b600255600160a060020a038216600090815260208190526040902054610c39908263ffffffff610f4d16565b600160a060020a038316600081815260208181526040808320949094558351858152935191937fddf252ad1be2c89b69c2b068fc378daa952ba7f163c4a11628f55a4df523b3ef929081900390910190a35050565b6000600160a060020a0382161515610ca557600080fd5b50600160a060020a03166000908152602091909152604090205460ff1690565b610cd660038263ffffffff61106816565b604051600160a060020a038216907fcd265ebaf09df2871cc7bd4133404a235ba12eff2041bb89d9c714a2621c7c7e90600090a250565b600160a060020a0382166000908152600160209081526040808320338452909152902054811115610d3d57600080fd5b600160a060020a0382166000908152600160209081526040808320338452909152902054610d71908263ffffffff610f4d16565b600160a060020a038316600090815260016020908152604080832033845290915290205561078f8282610bc0565b610db060038263ffffffff6110b416565b604051600160a060020a038216907f6719d08c1888103bea251a4ed56406bd0c3e69723c8a1686e017e7bbe159b6f890600090a250565b610df860058263ffffffff6110b416565b604051600160a060020a038216907f6ae172837ea30b801fbfcdd4108aa1d5bf8ff775444fd70256b44e6bf3dfc3f690600090a250565b610e4060058263ffffffff61106816565b604051600160a060020a038216907fe94479a9f7e1952cc78f2d6baab678adc1b772d936c6583def489e524cb6669290600090a250565b6000600160a060020a0383161515610e8e57600080fd5b336000908152600160209081526040808320600160a060020a0387168452909152902054610ab1908363ffffffff610f4d16565b60006106bd338484610f64565b600160a060020a0381161515610ee457600080fd5b600654604051600160a060020a038084169216907f8be0079c531659141344cd1fd0a4f28419497f9722a3daafe3b4186f6b6457e090600090a36006805473ffffffffffffffffffffffffffffffffffffffff1916600160a060020a0392909216919091179055565b60008083831115610f5d57600080fd5b5050900390565b600160a060020a038316600090815260208190526040902054811115610f8957600080fd5b600160a060020a0382161515610f9e57600080fd5b600160a060020a038316600090815260208190526040902054610fc7908263ffffffff610f4d16565b600160a060020a038085166000908152602081905260408082209390935590841681522054610ffc908263ffffffff61105616565b600160a060020a038084166000818152602081815260409182902094909455805185815290519193928716927fddf252ad1be2c89b69c2b068fc378daa952ba7f163c4a11628f55a4df523b3ef92918290030190a3505050565b6000828201838110156105e057600080fd5b600160a060020a038116151561107d57600080fd5b6110878282610c8e565b151561109257600080fd5b600160a060020a0316600090815260209190915260409020805460ff19169055565b600160a060020a03811615156110c957600080fd5b6110d38282610c8e565b156110dd57600080fd5b600160a060020a0316600090815260209190915260409020805460ff191660011790555600a165627a7a72305820e1f804a3e6af98154fc144e4d702b17893cf847d395ba516c1cada82dd5104270029",
  "source": "pragma solidity ^0.4.24;\n\n\nimport 'openzeppelin-solidity/contracts/token/ERC20/ERC20Burnable.sol';\nimport 'openzeppelin-solidity/contracts/token/ERC20/ERC20Pausable.sol';\nimport 'openzeppelin-solidity/contracts/token/ERC20/ERC20Mintable.sol';\nimport \"openzeppelin-solidity/contracts/ownership/Ownable.sol\";\n\ncontract TestToken is  ERC20Burnable, ERC20Pausable, ERC20Mintable, Ownable {\n    string public name = \"Test Token\";\n    string public symbol = \"TEST\";\n    uint8 public decimals = 18;\n}\n",
  "sourcePath": "/Users/vamsee/Development/blockchain/pulse/oz-sample-app/contracts/TestToken.sol",
  "compiler": {
    "name": "solc",
    "version": "0.4.24+commit.e67f0147.Emscripten.clang"
  },
  "schemaVersion": "2.0.1",
  "updatedAt": "2018-10-21T16:31:40.128Z"
}