{
  "contractName": "TestCrowdsale",
  "abi": [
    {
      "constant": true,
      "inputs": [],
      "name": "hasClosed",
      "outputs": [
        {
          "name": "",
          "type": "bool"
        }
      ],
      "payable": false,
      "stateMutability": "view",
      "type": "function"
    },
    {
      "constant": true,
      "inputs": [],
      "name": "finalRate",
      "outputs": [
        {
          "name": "",
          "type": "uint256"
        }
      ],
      "payable": false,
      "stateMutability": "view",
      "type": "function"
    },
    {
      "constant": true,
      "inputs": [],
      "name": "rate",
      "outputs": [
        {
          "name": "",
          "type": "uint256"
        }
      ],
      "payable": false,
      "stateMutability": "view",
      "type": "function"
    },
    {
      "constant": true,
      "inputs": [],
      "name": "cap",
      "outputs": [
        {
          "name": "",
          "type": "uint256"
        }
      ],
      "payable": false,
      "stateMutability": "view",
      "type": "function"
    },
    {
      "constant": true,
      "inputs": [],
      "name": "goal",
      "outputs": [
        {
          "name": "",
          "type": "uint256"
        }
      ],
      "payable": false,
      "stateMutability": "view",
      "type": "function"
    },
    {
      "constant": true,
      "inputs": [],
      "name": "weiRaised",
      "outputs": [
        {
          "name": "",
          "type": "uint256"
        }
      ],
      "payable": false,
      "stateMutability": "view",
      "type": "function"
    },
    {
      "constant": true,
      "inputs": [],
      "name": "isOpen",
      "outputs": [
        {
          "name": "",
          "type": "bool"
        }
      ],
      "payable": false,
      "stateMutability": "view",
      "type": "function"
    },
    {
      "constant": true,
      "inputs": [],
      "name": "closingTime",
      "outputs": [
        {
          "name": "",
          "type": "uint256"
        }
      ],
      "payable": false,
      "stateMutability": "view",
      "type": "function"
    },
    {
      "constant": false,
      "inputs": [],
      "name": "finalize",
      "outputs": [],
      "payable": false,
      "stateMutability": "nonpayable",
      "type": "function"
    },
    {
      "constant": true,
      "inputs": [],
      "name": "capReached",
      "outputs": [
        {
          "name": "",
          "type": "bool"
        }
      ],
      "payable": false,
      "stateMutability": "view",
      "type": "function"
    },
    {
      "constant": true,
      "inputs": [],
      "name": "wallet",
      "outputs": [
        {
          "name": "",
          "type": "address"
        }
      ],
      "payable": false,
      "stateMutability": "view",
      "type": "function"
    },
    {
      "constant": true,
      "inputs": [],
      "name": "totalTokensForSale",
      "outputs": [
        {
          "name": "",
          "type": "uint256"
        }
      ],
      "payable": false,
      "stateMutability": "view",
      "type": "function"
    },
    {
      "constant": true,
      "inputs": [],
      "name": "tokensForBounty",
      "outputs": [
        {
          "name": "",
          "type": "uint256"
        }
      ],
      "payable": false,
      "stateMutability": "view",
      "type": "function"
    },
    {
      "constant": false,
      "inputs": [],
      "name": "renounceOwnership",
      "outputs": [],
      "payable": false,
      "stateMutability": "nonpayable",
      "type": "function"
    },
    {
      "constant": true,
      "inputs": [],
      "name": "preRate",
      "outputs": [
        {
          "name": "",
          "type": "uint256"
        }
      ],
      "payable": false,
      "stateMutability": "view",
      "type": "function"
    },
    {
      "constant": true,
      "inputs": [],
      "name": "tokensForGrowth",
      "outputs": [
        {
          "name": "",
          "type": "uint256"
        }
      ],
      "payable": false,
      "stateMutability": "view",
      "type": "function"
    },
    {
      "constant": true,
      "inputs": [],
      "name": "goalReached",
      "outputs": [
        {
          "name": "",
          "type": "bool"
        }
      ],
      "payable": false,
      "stateMutability": "view",
      "type": "function"
    },
    {
      "constant": true,
      "inputs": [],
      "name": "owner",
      "outputs": [
        {
          "name": "",
          "type": "address"
        }
      ],
      "payable": false,
      "stateMutability": "view",
      "type": "function"
    },
    {
      "constant": true,
      "inputs": [],
      "name": "isOwner",
      "outputs": [
        {
          "name": "",
          "type": "bool"
        }
      ],
      "payable": false,
      "stateMutability": "view",
      "type": "function"
    },
    {
      "constant": true,
      "inputs": [],
      "name": "totalWeiRaisedDuringPreICO",
      "outputs": [
        {
          "name": "",
          "type": "uint256"
        }
      ],
      "payable": false,
      "stateMutability": "view",
      "type": "function"
    },
    {
      "constant": true,
      "inputs": [],
      "name": "finalized",
      "outputs": [
        {
          "name": "",
          "type": "bool"
        }
      ],
      "payable": false,
      "stateMutability": "view",
      "type": "function"
    },
    {
      "constant": true,
      "inputs": [],
      "name": "openingTime",
      "outputs": [
        {
          "name": "",
          "type": "uint256"
        }
      ],
      "payable": false,
      "stateMutability": "view",
      "type": "function"
    },
    {
      "constant": false,
      "inputs": [
        {
          "name": "beneficiary",
          "type": "address"
        }
      ],
      "name": "claimRefund",
      "outputs": [],
      "payable": false,
      "stateMutability": "nonpayable",
      "type": "function"
    },
    {
      "constant": true,
      "inputs": [],
      "name": "totalTokensForSaleDuringPreICO",
      "outputs": [
        {
          "name": "",
          "type": "uint256"
        }
      ],
      "payable": false,
      "stateMutability": "view",
      "type": "function"
    },
    {
      "constant": true,
      "inputs": [],
      "name": "stage",
      "outputs": [
        {
          "name": "",
          "type": "uint8"
        }
      ],
      "payable": false,
      "stateMutability": "view",
      "type": "function"
    },
    {
      "constant": true,
      "inputs": [],
      "name": "convMultiplier",
      "outputs": [
        {
          "name": "",
          "type": "uint256"
        }
      ],
      "payable": false,
      "stateMutability": "view",
      "type": "function"
    },
    {
      "constant": true,
      "inputs": [],
      "name": "maxTokens",
      "outputs": [
        {
          "name": "",
          "type": "uint256"
        }
      ],
      "payable": false,
      "stateMutability": "view",
      "type": "function"
    },
    {
      "constant": false,
      "inputs": [
        {
          "name": "beneficiary",
          "type": "address"
        }
      ],
      "name": "buyTokens",
      "outputs": [],
      "payable": true,
      "stateMutability": "payable",
      "type": "function"
    },
    {
      "constant": false,
      "inputs": [
        {
          "name": "newOwner",
          "type": "address"
        }
      ],
      "name": "transferOwnership",
      "outputs": [],
      "payable": false,
      "stateMutability": "nonpayable",
      "type": "function"
    },
    {
      "constant": true,
      "inputs": [],
      "name": "currentRate",
      "outputs": [
        {
          "name": "",
          "type": "uint256"
        }
      ],
      "payable": false,
      "stateMutability": "view",
      "type": "function"
    },
    {
      "constant": true,
      "inputs": [],
      "name": "token",
      "outputs": [
        {
          "name": "",
          "type": "address"
        }
      ],
      "payable": false,
      "stateMutability": "view",
      "type": "function"
    },
    {
      "constant": true,
      "inputs": [],
      "name": "tokensForTeam",
      "outputs": [
        {
          "name": "",
          "type": "uint256"
        }
      ],
      "payable": false,
      "stateMutability": "view",
      "type": "function"
    },
    {
      "inputs": [
        {
          "name": "_openingTime",
          "type": "uint256"
        },
        {
          "name": "_closingTime",
          "type": "uint256"
        },
        {
          "name": "_rate",
          "type": "uint256"
        },
        {
          "name": "_wallet",
          "type": "address"
        },
        {
          "name": "_cap",
          "type": "uint256"
        },
        {
          "name": "_token",
          "type": "address"
        },
        {
          "name": "_goal",
          "type": "uint256"
        }
      ],
      "payable": false,
      "stateMutability": "nonpayable",
      "type": "constructor"
    },
    {
      "payable": true,
      "stateMutability": "payable",
      "type": "fallback"
    },
    {
      "anonymous": false,
      "inputs": [
        {
          "indexed": false,
          "name": "text",
          "type": "string"
        }
      ],
      "name": "EthTransferred",
      "type": "event"
    },
    {
      "anonymous": false,
      "inputs": [
        {
          "indexed": false,
          "name": "text",
          "type": "string"
        },
        {
          "indexed": false,
          "name": "value",
          "type": "uint256"
        }
      ],
      "name": "EthRefunded",
      "type": "event"
    },
    {
      "anonymous": false,
      "inputs": [
        {
          "indexed": true,
          "name": "previousOwner",
          "type": "address"
        },
        {
          "indexed": true,
          "name": "newOwner",
          "type": "address"
        }
      ],
      "name": "OwnershipTransferred",
      "type": "event"
    },
    {
      "anonymous": false,
      "inputs": [],
      "name": "CrowdsaleFinalized",
      "type": "event"
    },
    {
      "anonymous": false,
      "inputs": [
        {
          "indexed": true,
          "name": "purchaser",
          "type": "address"
        },
        {
          "indexed": true,
          "name": "beneficiary",
          "type": "address"
        },
        {
          "indexed": false,
          "name": "value",
          "type": "uint256"
        },
        {
          "indexed": false,
          "name": "amount",
          "type": "uint256"
        }
      ],
      "name": "TokensPurchased",
      "type": "event"
    },
    {
      "constant": false,
      "inputs": [
        {
          "name": "value",
          "type": "uint256"
        }
      ],
      "name": "setCrowdsaleStage",
      "outputs": [],
      "payable": false,
      "stateMutability": "nonpayable",
      "type": "function"
    },
    {
      "constant": false,
      "inputs": [
        {
          "name": "_teamFund",
          "type": "address"
        },
        {
          "name": "_growthFund",
          "type": "address"
        },
        {
          "name": "_bountyFund",
          "type": "address"
        },
        {
          "name": "_newTokenOwner",
          "type": "address"
        }
      ],
      "name": "finish",
      "outputs": [],
      "payable": false,
      "stateMutability": "nonpayable",
      "type": "function"
    },
    {
      "constant": true,
      "inputs": [],
      "name": "hasEnded",
      "outputs": [
        {
          "name": "",
          "type": "bool"
        }
      ],
      "payable": false,
      "stateMutability": "view",
      "type": "function"
    }
  ],
  "bytecode": "0x6080604052600b805460a060020a60ff02191690556b09b18ab5df7180b6b8000000600c556b026c62ad77dc602dae000000600d556b0221f06fb12854a314000000600e556a027b46536c66c8e3000000600f556b03aefc63d4e89230f40000006010556b013a542146f830bafc000000601155619c406012553480156200008657600080fd5b5060405160e08062001cbf83398101604090815281516020830151918301516060840151608085015160a086015160c09096015160016000908155949693949293919281908890889086908990899088908311620000e357600080fd5b600160a060020a0382161515620000f957600080fd5b600160a060020a03811615156200010f57600080fd5b60039290925560028054600160a060020a03928316600160a060020a03199182161790915560018054929093169116179055600081116200014f57600080fd5b600555428210156200016057600080fd5b8181116200016d57600080fd5b6006919091556007556008805460ff19169055600081116200018e57600080fd5b620001a16401000000006200025a810204565b620001ab62000269565b600160a060020a03909116815260405190819003602001906000f080158015620001d9573d6000803e3d6000fd5b50600a8054600160a060020a03928316600160a060020a031991821617909155600992909255600b80549092163317918290556040519116906000907f8be0079c531659141344cd1fd0a4f28419497f9722a3daafe3b4186f6b6457e0908290a36012859055828111156200024d57600080fd5b505050505050506200027a565b600254600160a060020a031690565b6040516106e580620015da83390190565b611350806200028a6000396000f30060806040526004361061019d5763ffffffff60e060020a6000350416631515bc2b811461033057806321106109146103595780632c4e722e14610380578063355274ea1461039557806340193883146103aa5780634042b66f146103bf57806347535d7b146103d45780634b6753bc146103e95780634bb278f3146103fe5780634f93594514610415578063521eb2731461042a57806360219c7b1461045b578063644280e214610470578063715018a614610485578063742f79d51461049a57806377d091b3146104af5780637d3d6522146104c45780638da5cb5b146104d95780638f32d59b146104ee578063a997f82f14610503578063abe8014a1461051b578063b3f05b9714610530578063b7a8807c14610545578063bffa55d51461055a578063c02aaea11461057b578063c040e6b814610590578063c79dbe2a146105c9578063e76b8126146105de578063e831574214610611578063ec8ac4d814610626578063ecb70fb71461063a578063f2fde38b1461064f578063f9f8bdb714610670578063fc0c546a14610685578063fde83a341461069a575b60006101b4601254346106af90919063ffffffff16565b90506000600b5460a060020a900460ff1660018111156101d057fe5b1480156102505750601154816101e46106e8565b600160a060020a03166318160ddd6040518163ffffffff1660e060020a028152600401602060405180830381600087803b15801561022157600080fd5b505af1158015610235573d6000803e3d6000fd5b505050506040513d602081101561024b57600080fd5b505101115b156102ed5760405133903480156108fc02916000818181858888f19350505050158015610281573d6000803e3d6000fd5b5060408051602081018390528181526010818301527f50726549434f204c696d69742048697400000000000000000000000000000000606082015290517fb52600144a3148b597c19237923be426a382542c4a3f09ac96338ed92460da199181900360800190a161032d565b6102f6336106f7565b6000600b5460a060020a900460ff16600181111561031057fe5b141561032d57601354610329903463ffffffff6107b216565b6013555b50005b34801561033c57600080fd5b506103456107c4565b604080519115158252519081900360200190f35b34801561036557600080fd5b5061036e6107cc565b60408051918252519081900360200190f35b34801561038c57600080fd5b5061036e6107d2565b3480156103a157600080fd5b5061036e6107d8565b3480156103b657600080fd5b5061036e6107de565b3480156103cb57600080fd5b5061036e6107e4565b3480156103e057600080fd5b506103456107ea565b3480156103f557600080fd5b5061036e610805565b34801561040a57600080fd5b5061041361080b565b005b34801561042157600080fd5b5061034561086e565b34801561043657600080fd5b5061043f610882565b60408051600160a060020a039092168252519081900360200190f35b34801561046757600080fd5b5061036e610891565b34801561047c57600080fd5b5061036e610897565b34801561049157600080fd5b5061041361089d565b3480156104a657600080fd5b5061036e610907565b3480156104bb57600080fd5b5061036e61090e565b3480156104d057600080fd5b50610345610914565b3480156104e557600080fd5b5061043f610921565b3480156104fa57600080fd5b50610345610930565b34801561050f57600080fd5b50610413600435610941565b34801561052757600080fd5b5061036e6109fe565b34801561053c57600080fd5b50610345610a04565b34801561055157600080fd5b5061036e610a0d565b34801561056657600080fd5b50610413600160a060020a0360043516610a13565b34801561058757600080fd5b5061036e610aba565b34801561059c57600080fd5b506105a5610ac0565b604051808260018111156105b557fe5b60ff16815260200191505060405180910390f35b3480156105d557600080fd5b5061036e610ad0565b3480156105ea57600080fd5b50610413600160a060020a0360043581169060243581169060443581169060643516610ade565b34801561061d57600080fd5b5061036e610e03565b610413600160a060020a03600435166106f7565b34801561064657600080fd5b50610345610e09565b34801561065b57600080fd5b50610413600160a060020a0360043516610e0e565b34801561067c57600080fd5b5061036e610e2d565b34801561069157600080fd5b5061043f6106e8565b3480156106a657600080fd5b5061036e610e33565b6000808315156106c257600091506106e1565b508282028284828115156106d257fe5b04146106dd57600080fd5b8091505b5092915050565b600154600160a060020a031690565b6000805460010180825534919061070e8484610e39565b61071783610e56565b60045490925061072d908463ffffffff6107b216565b60045561073a8483610e72565b60408051848152602081018490528151600160a060020a0387169233927f6faf93231a456e552dbc9961f58d9713ee4f2e69d15f1975b050ef0911053a7b929081900390910190a361078c84846109fa565b610794610e7c565b61079e84846109fa565b60005481146107ac57600080fd5b50505050565b6000828201838110156106dd57600080fd5b600754421190565b619c4081565b60035490565b60055490565b60095490565b60045490565b6000600654421015801561080057506007544211155b905090565b60075490565b60085460ff161561081b57600080fd5b6108236107c4565b151561082e57600080fd5b6008805460ff19166001179055610843610ff2565b6040517f9270cc390c096600a1c17c44345a1ba689fafd99d97487b10cfccf86cf73183690600090a1565b600060055461087b6107e4565b1015905090565b600254600160a060020a031690565b60105481565b600f5481565b6108a5610930565b15156108b057600080fd5b600b54604051600091600160a060020a0316907f8be0079c531659141344cd1fd0a4f28419497f9722a3daafe3b4186f6b6457e0908390a3600b805473ffffffffffffffffffffffffffffffffffffffff19169055565b6201388081565b600d5481565b600060095461087b6107e4565b600b54600160a060020a031690565b600b54600160a060020a0316331490565b600061094b610930565b151561095657600080fd5b81151561096557506000610972565b8160011415610972575060015b600b805482919074ff0000000000000000000000000000000000000000191660a060020a8360018111156109a257fe5b02179055506000600b5460a060020a900460ff1660018111156109c157fe5b14156109d357620138806012556109fa565b6001600b5460a060020a900460ff1660018111156109ed57fe5b14156109fa57619c406012555b5050565b60135481565b60085460ff1690565b60065490565b610a1b610a04565b1515610a2657600080fd5b610a2e610914565b15610a3857600080fd5b600a54604080517f51cff8d9000000000000000000000000000000000000000000000000000000008152600160a060020a038481166004830152915191909216916351cff8d991602480830192600092919082900301818387803b158015610a9f57600080fd5b505af1158015610ab3573d6000803e3d6000fd5b5050505050565b60115481565b600b5460a060020a900460ff1681565b69d3c21bcecceda100000081565b6000806000610aeb610930565b1515610af657600080fd5b610afe610a04565b15610b0857600080fd5b610b106106e8565b600160a060020a03166318160ddd6040518163ffffffff1660e060020a028152600401602060405180830381600087803b158015610b4d57600080fd5b505af1158015610b61573d6000803e3d6000fd5b505050506040513d6020811015610b7757600080fd5b5051600c549093508310610b8a57600080fd5b826010540391506000821115610ba357600d8054830190555b610bab6106e8565b905080600160a060020a03166340c10f1988600e546040518363ffffffff1660e060020a0281526004018083600160a060020a0316600160a060020a0316815260200182815260200192505050602060405180830381600087803b158015610c1257600080fd5b505af1158015610c26573d6000803e3d6000fd5b505050506040513d6020811015610c3c57600080fd5b5050600d54604080517f40c10f19000000000000000000000000000000000000000000000000000000008152600160a060020a03898116600483015260248201939093529051918316916340c10f19916044808201926020929091908290030181600087803b158015610cae57600080fd5b505af1158015610cc2573d6000803e3d6000fd5b505050506040513d6020811015610cd857600080fd5b5050600f54604080517f40c10f19000000000000000000000000000000000000000000000000000000008152600160a060020a03888116600483015260248201939093529051918316916340c10f19916044808201926020929091908290030181600087803b158015610d4a57600080fd5b505af1158015610d5e573d6000803e3d6000fd5b505050506040513d6020811015610d7457600080fd5b5050604080517ff2fde38b000000000000000000000000000000000000000000000000000000008152600160a060020a03868116600483015291519183169163f2fde38b9160248082019260009290919082900301818387803b158015610dda57600080fd5b505af1158015610dee573d6000803e3d6000fd5b50505050610dfa61080b565b50505050505050565b600c5481565b600190565b610e16610930565b1515610e2157600080fd5b610e2a8161114e565b50565b60125481565b600e5481565b610e416107ea565b1515610e4c57600080fd5b6109fa82826111cc565b601254600090610e6c908363ffffffff6106af16565b92915050565b6109fa82826111fc565b6000600b5460a060020a900460ff166001811115610e9657fe5b1415610f4257610ea4610882565b600160a060020a03166108fc349081150290604051600060405180830381858888f19350505050158015610edc573d6000803e3d6000fd5b50604080516020808252601a908201527f666f7277617264696e672066756e647320746f2077616c6c65740000000000008183015290517f47af8c4076c54a76f613f82e4296a2c5e2167698d368157a82e62398393e345e9181900360600190a1610ff0565b6001600b5460a060020a900460ff166001811115610f5c57fe5b1415610ff0576040805160208082526024908201527f666f7277617264696e672066756e647320746f20726566756e6461626c652076818301527f61756c7400000000000000000000000000000000000000000000000000000000606082015290517f47af8c4076c54a76f613f82e4296a2c5e2167698d368157a82e62398393e345e9181900360800190a1610ff061129d565b565b610ffa610914565b156110da57600a60009054906101000a9004600160a060020a0316600160a060020a03166343d726d66040518163ffffffff1660e060020a028152600401600060405180830381600087803b15801561105257600080fd5b505af1158015611066573d6000803e3d6000fd5b50505050600a60009054906101000a9004600160a060020a0316600160a060020a0316639af6549a6040518163ffffffff1660e060020a028152600401600060405180830381600087803b1580156110bd57600080fd5b505af11580156110d1573d6000803e3d6000fd5b50505050611146565b600a60009054906101000a9004600160a060020a0316600160a060020a0316638c52dc416040518163ffffffff1660e060020a028152600401600060405180830381600087803b15801561112d57600080fd5b505af1158015611141573d6000803e3d6000fd5b505050505b610ff0610ff0565b600160a060020a038116151561116357600080fd5b600b54604051600160a060020a038084169216907f8be0079c531659141344cd1fd0a4f28419497f9722a3daafe3b4186f6b6457e090600090a3600b805473ffffffffffffffffffffffffffffffffffffffff1916600160a060020a0392909216919091179055565b6111d68282611303565b6005546111f1826111e56107e4565b9063ffffffff6107b216565b11156109fa57600080fd5b6112046106e8565b600160a060020a03166340c10f1983836040518363ffffffff1660e060020a0281526004018083600160a060020a0316600160a060020a0316815260200182815260200192505050602060405180830381600087803b15801561126657600080fd5b505af115801561127a573d6000803e3d6000fd5b505050506040513d602081101561129057600080fd5b505115156109fa57600080fd5b600a54604080517ff340fa010000000000000000000000000000000000000000000000000000000081523360048201529051600160a060020a039092169163f340fa01913491602480830192600092919082900301818588803b158015610a9f57600080fd5b600160a060020a038216151561131857600080fd5b8015156109fa57600080fd00a165627a7a72305820352a62452fb1501cc9a937e48a8e8985cdc8956f863bff175f5200b1b05dddc60029608060405234801561001057600080fd5b506040516020806106e5833981016040818152915160008054600160a060020a031916331790819055600160a060020a0316825291517f4101e71e974f68df5e9730cc223280b41654676bbb052cdcc735c3337e64d2d99181900360200190a1600160a060020a038116151561008557600080fd5b6002805460ff19600160a060020a03939093166101000261010060a860020a031990911617919091169055610626806100bf6000396000f3006080604052600436106100ae5763ffffffff7c01000000000000000000000000000000000000000000000000000000006000350416632348238c81146100b357806338af3eed146100d657806343d726d61461010757806351cff8d91461011c578063685ca1941461013d5780638c52dc41146101725780639af6549a14610187578063c19d93fb1461019c578063c6dbdf61146101d5578063e3a9db1a146101ea578063f340fa011461021d575b600080fd5b3480156100bf57600080fd5b506100d4600160a060020a0360043516610231565b005b3480156100e257600080fd5b506100eb6102c4565b60408051600160a060020a039092168252519081900360200190f35b34801561011357600080fd5b506100d46102d8565b34801561012857600080fd5b506100d4600160a060020a0360043516610343565b34801561014957600080fd5b5061015e600160a060020a0360043516610363565b604080519115158252519081900360200190f35b34801561017e57600080fd5b506100d461037f565b34801561019357600080fd5b506100d46103eb565b3480156101a857600080fd5b506101b1610447565b604051808260028111156101c157fe5b60ff16815260200191505060405180910390f35b3480156101e157600080fd5b506100eb610450565b3480156101f657600080fd5b5061020b600160a060020a036004351661045f565b60408051918252519081900360200190f35b6100d4600160a060020a036004351661047a565b600054600160a060020a0316331461024857600080fd5b600160a060020a038116151561025d57600080fd5b6000805473ffffffffffffffffffffffffffffffffffffffff1916600160a060020a03838116919091179182905560408051929091168252517f4101e71e974f68df5e9730cc223280b41654676bbb052cdcc735c3337e64d2d9916020908290030190a150565b6002546101009004600160a060020a031690565b600054600160a060020a031633146102ef57600080fd5b60006002805460ff169081111561030257fe5b1461030c57600080fd5b6002805460ff1916811790556040517f088672c3a6e342f7cd94a65ba63b79df24a8973927b4d05d803c44bbf787d12f90600090a1565b61034c81610363565b151561035757600080fd5b610360816104a0565b50565b600060016002805460ff169081111561037857fe5b1492915050565b600054600160a060020a0316331461039657600080fd5b60006002805460ff16908111156103a957fe5b146103b357600080fd5b6002805460ff191660011790556040517f599d8e5a83cffb867d051598c4d70e805d59802d8081c1c7d6dffc5b6aca2b8990600090a1565b6002805460ff16818111156103fc57fe5b1461040657600080fd5b600254604051600160a060020a036101009092049190911690303180156108fc02916000818181858888f19350505050158015610360573d6000803e3d6000fd5b60025460ff1690565b600054600160a060020a031690565b600160a060020a031660009081526001602052604090205490565b60006002805460ff169081111561048d57fe5b1461049757600080fd5b61036081610547565b60008054600160a060020a031633146104b857600080fd5b50600160a060020a038116600081815260016020526040808220805490839055905190929183156108fc02918491818181858888f19350505050158015610503573d6000803e3d6000fd5b50604080518281529051600160a060020a038416917f7084f5476618d8e60b11ef0d7d3f06914655adb8793e28ff7f018d4c76d505d5919081900360200190a25050565b60008054600160a060020a0316331461055f57600080fd5b50600160a060020a038116600090815260016020526040902054349061058b908263ffffffff6105e116565b600160a060020a038316600081815260016020908152604091829020939093558051848152905191927f2da466a7b24304f47e87fa2e1e5a81b9831ce54fec19055ce277ca2f39ba42c492918290030190a25050565b6000828201838110156105f357600080fd5b93925050505600a165627a7a723058207600adfad4541c44c77b4e569e20112f7cc0ab38d8b41ed016676c8721e685280029",
  "source": "pragma solidity ^0.4.24;\n\nimport './TestToken.sol';\nimport 'openzeppelin-solidity/contracts/crowdsale/validation/CappedCrowdsale.sol';\nimport 'openzeppelin-solidity/contracts/crowdsale/validation/TimedCrowdsale.sol';\nimport 'openzeppelin-solidity/contracts/crowdsale/distribution/RefundableCrowdsale.sol';\nimport 'openzeppelin-solidity/contracts/crowdsale/emission/MintedCrowdsale.sol';\nimport \"openzeppelin-solidity/contracts/token/ERC20/ERC20Mintable.sol\";\nimport \"openzeppelin-solidity/contracts/ownership/Ownable.sol\";\n\n\n\n\ncontract TestCrowdsale is CappedCrowdsale, RefundableCrowdsale, MintedCrowdsale, Ownable {\n\n\n    // ICO Stage\n    // ============\n    enum CrowdsaleStage { PreICO, ICO }\n    CrowdsaleStage public stage = CrowdsaleStage.PreICO; // By default it's Pre Sale\n\n    // Token Distribution\n    // =============================\n    uint256 public constant convMultiplier = 10 ** 24; // 18 decimals plus 10 ** 6 as we want to reference most values in millions\n    uint256 public maxTokens = 3000 * convMultiplier; // There will be total 3B Test Tokens\n    uint256 public tokensForGrowth = 750  * convMultiplier; // 25%\n    uint256 public tokensForTeam = 660 * convMultiplier; // 22%\n    uint256 public tokensForBounty = 3 * convMultiplier; // 1%\n    uint256 public totalTokensForSale = 1140 *  convMultiplier; // 1.1B (38%) TEST will be sold in Crowdsale\n    uint256 public totalTokensForSaleDuringPreICO = 380 * convMultiplier; // 30% of the 1.1B Crowdsale PULSE will be sold during PreICO\n    uint256 public constant preRate = 80000; // pulse per ether during PreICO, reflecting a 50% discount\n    uint256 public constant finalRate = 40000; // pulse per ether during ICO\n    uint256 public currentRate = 40000; // pulse per ether during ICO\n    // ==============================\n\n    // Amount raised in PreICO\n    // ==================\n    uint256 public totalWeiRaisedDuringPreICO;\n    // ===================\n\n\n    // Events\n    event EthTransferred(string text);\n    event EthRefunded(string text, uint256 value);\n\n    constructor(\n        uint256 _openingTime,\n        uint256 _closingTime,\n        uint256 _rate,\n        address _wallet,\n        uint256 _cap,\n        ERC20Mintable _token,\n        uint256 _goal\n    )\n    public\n    Crowdsale(_rate, _wallet, _token)\n    CappedCrowdsale(_cap)\n    TimedCrowdsale(_openingTime, _closingTime)\n    RefundableCrowdsale(_goal)\n    {\n        //As goal needs to be met for a successful crowdsale\n        //the value needs to less or equal than a cap which is limit for accepted funds\n        currentRate = _rate;\n        require(_goal <= _cap);\n    }\n\n    // Crowdsale Stage Management\n    // =========================================================\n\n    // Change Crowdsale Stage. Available Options: PreICO, ICO\n    function setCrowdsaleStage(uint value) public onlyOwner {\n\n        CrowdsaleStage _stage;\n\n        if (uint(CrowdsaleStage.PreICO) == value) {\n            _stage = CrowdsaleStage.PreICO;\n        } else if (uint(CrowdsaleStage.ICO) == value) {\n            _stage = CrowdsaleStage.ICO;\n        }\n\n        stage = _stage;\n\n        //1 ETH can buy 5 tokens in PreICO but only 2 during ICO\n        if (stage == CrowdsaleStage.PreICO) {\n            currentRate = preRate;\n        } else if (stage == CrowdsaleStage.ICO) {\n            currentRate = finalRate;\n        }\n    }\n\n    function _getTokenAmount(uint256 weiAmount)\n    internal view returns (uint256)\n    {\n        return currentRate.mul(weiAmount);\n    }\n\n\n    function () external payable {\n        uint256 tokensThatWillBeMintedAfterPurchase = msg.value.mul(currentRate);\n        if ((stage == CrowdsaleStage.PreICO) && (token().totalSupply() + tokensThatWillBeMintedAfterPurchase > totalTokensForSaleDuringPreICO)) {\n            msg.sender.transfer(msg.value); // Refund them\n            emit EthRefunded(\"PreICO Limit Hit\", tokensThatWillBeMintedAfterPurchase);\n            return;\n        }\n\n        buyTokens(msg.sender);\n\n        if (stage == CrowdsaleStage.PreICO) {\n            totalWeiRaisedDuringPreICO = totalWeiRaisedDuringPreICO.add(msg.value);\n        }\n    }\n\n    function _forwardFunds() internal {\n        if (stage == CrowdsaleStage.PreICO) {\n            wallet().transfer(msg.value);\n            emit EthTransferred(\"forwarding funds to wallet\");\n        } else if (stage == CrowdsaleStage.ICO) {\n            emit EthTransferred(\"forwarding funds to refundable vault\");\n            super._forwardFunds();\n        }\n    }\n\n    // ===========================\n\n    // Finish: Mint Extra Tokens as needed before finalizing the Crowdsale.\n    // ====================================================================\n\n\n    function finish(address _teamFund, address _growthFund, address _bountyFund, address _newTokenOwner) public onlyOwner {\n\n        require(!finalized());\n        uint256 alreadyMinted = token().totalSupply();\n        require(alreadyMinted < maxTokens);\n\n        uint256 unsoldTokens = totalTokensForSale - alreadyMinted;\n        if (unsoldTokens > 0) {\n            tokensForGrowth = tokensForGrowth + unsoldTokens;\n        }\n\n        TestToken ttoken = TestToken(ERC20(token()));\n        ttoken.mint(_teamFund,tokensForTeam);\n        ttoken.mint(_growthFund,tokensForGrowth);\n        ttoken.mint(_bountyFund,tokensForBounty);\n        ttoken.transferOwnership(_newTokenOwner);\n        finalize();\n    }\n    // ===============================\n\n    // REMOVE THIS FUNCTION ONCE YOU ARE READY FOR PRODUCTION\n    // USEFUL FOR TESTING `finish()` FUNCTION\n\n\n    function hasEnded() public view returns (bool) {\n        return true;\n    }\n\n\n}\n",
  "sourcePath": "/Users/vamsee/Development/blockchain/pulse/oz-sample-app/contracts/TestCrowdsale.sol",
  "compiler": {
    "name": "solc",
    "version": "0.4.24+commit.e67f0147.Emscripten.clang"
  },
  "schemaVersion": "2.0.1",
  "updatedAt": "2018-10-21T16:33:30.566Z"
}