{
  "contractName": "TestPlatform",
  "abi": [
    {
      "constant": true,
      "inputs": [],
      "name": "testToken",
      "outputs": [
        {
          "name": "",
          "type": "address"
        }
      ],
      "payable": false,
      "stateMutability": "view",
      "type": "function"
    },
    {
      "constant": false,
      "inputs": [],
      "name": "renounceOwnership",
      "outputs": [],
      "payable": false,
      "stateMutability": "nonpayable",
      "type": "function"
    },
    {
      "constant": true,
      "inputs": [],
      "name": "owner",
      "outputs": [
        {
          "name": "",
          "type": "address"
        }
      ],
      "payable": false,
      "stateMutability": "view",
      "type": "function"
    },
    {
      "constant": true,
      "inputs": [],
      "name": "isOwner",
      "outputs": [
        {
          "name": "",
          "type": "bool"
        }
      ],
      "payable": false,
      "stateMutability": "view",
      "type": "function"
    },
    {
      "constant": false,
      "inputs": [
        {
          "name": "newOwner",
          "type": "address"
        }
      ],
      "name": "transferOwnership",
      "outputs": [],
      "payable": false,
      "stateMutability": "nonpayable",
      "type": "function"
    },
    {
      "inputs": [
        {
          "name": "_testToken",
          "type": "address"
        }
      ],
      "payable": false,
      "stateMutability": "nonpayable",
      "type": "constructor"
    },
    {
      "anonymous": false,
      "inputs": [
        {
          "indexed": false,
          "name": "_message",
          "type": "string"
        },
        {
          "indexed": false,
          "name": "_value",
          "type": "uint256"
        }
      ],
      "name": "DebugEvent",
      "type": "event"
    },
    {
      "anonymous": false,
      "inputs": [
        {
          "indexed": false,
          "name": "_message",
          "type": "string"
        },
        {
          "indexed": false,
          "name": "_sender",
          "type": "address"
        }
      ],
      "name": "DebugEventAddress",
      "type": "event"
    },
    {
      "anonymous": false,
      "inputs": [
        {
          "indexed": false,
          "name": "_id",
          "type": "bytes12"
        },
        {
          "indexed": false,
          "name": "_buyer",
          "type": "address"
        },
        {
          "indexed": false,
          "name": "_catSubCat",
          "type": "string"
        },
        {
          "indexed": false,
          "name": "_escrow",
          "type": "address"
        }
      ],
      "name": "NewBIR",
      "type": "event"
    },
    {
      "anonymous": false,
      "inputs": [
        {
          "indexed": true,
          "name": "previousOwner",
          "type": "address"
        },
        {
          "indexed": true,
          "name": "newOwner",
          "type": "address"
        }
      ],
      "name": "OwnershipTransferred",
      "type": "event"
    },
    {
      "constant": false,
      "inputs": [
        {
          "name": "_id",
          "type": "bytes12"
        },
        {
          "name": "_buyer",
          "type": "address"
        },
        {
          "name": "_catSubCat",
          "type": "string"
        }
      ],
      "name": "createBIR",
      "outputs": [
        {
          "name": "success",
          "type": "bool"
        }
      ],
      "payable": false,
      "stateMutability": "nonpayable",
      "type": "function"
    },
    {
      "constant": false,
      "inputs": [
        {
          "name": "_id",
          "type": "bytes12"
        },
        {
          "name": "_actions",
          "type": "bytes4[]"
        },
        {
          "name": "_costs",
          "type": "uint256[]"
        }
      ],
      "name": "setActionCosts",
      "outputs": [
        {
          "name": "success",
          "type": "bool"
        }
      ],
      "payable": false,
      "stateMutability": "nonpayable",
      "type": "function"
    },
    {
      "constant": true,
      "inputs": [
        {
          "name": "_id",
          "type": "bytes12"
        }
      ],
      "name": "getBIR",
      "outputs": [
        {
          "name": "",
          "type": "address"
        },
        {
          "name": "",
          "type": "uint8"
        },
        {
          "name": "",
          "type": "string"
        },
        {
          "name": "",
          "type": "address"
        },
        {
          "name": "",
          "type": "uint256"
        }
      ],
      "payable": false,
      "stateMutability": "view",
      "type": "function"
    },
    {
      "constant": false,
      "inputs": [
        {
          "name": "_id",
          "type": "bytes12"
        },
        {
          "name": "_bidder",
          "type": "address"
        },
        {
          "name": "_actionType",
          "type": "bytes4"
        },
        {
          "name": "_bidHash",
          "type": "bytes32"
        },
        {
          "name": "_signedBidMessage",
          "type": "bytes"
        }
      ],
      "name": "sendBid",
      "outputs": [
        {
          "name": "success",
          "type": "bool"
        }
      ],
      "payable": false,
      "stateMutability": "nonpayable",
      "type": "function"
    },
    {
      "constant": true,
      "inputs": [
        {
          "name": "_id",
          "type": "bytes12"
        }
      ],
      "name": "getEscrowBalance",
      "outputs": [
        {
          "name": "",
          "type": "uint256"
        }
      ],
      "payable": false,
      "stateMutability": "view",
      "type": "function"
    },
    {
      "constant": false,
      "inputs": [
        {
          "name": "_id",
          "type": "bytes12"
        },
        {
          "name": "_payees",
          "type": "address[]"
        },
        {
          "name": "_payments",
          "type": "uint256[]"
        },
        {
          "name": "_buyerPayment",
          "type": "uint256"
        }
      ],
      "name": "settleBIR",
      "outputs": [
        {
          "name": "success",
          "type": "bool"
        }
      ],
      "payable": false,
      "stateMutability": "nonpayable",
      "type": "function"
    },
    {
      "constant": true,
      "inputs": [
        {
          "name": "hash",
          "type": "bytes32"
        },
        {
          "name": "sig",
          "type": "bytes"
        }
      ],
      "name": "recover",
      "outputs": [
        {
          "name": "",
          "type": "address"
        }
      ],
      "payable": false,
      "stateMutability": "pure",
      "type": "function"
    }
  ],
  "bytecode": "0x60806040523480156200001157600080fd5b50604051602080620026408339810180604052620000339190810190620000b7565b60008054600160a060020a0319163317808255604051600160a060020a039190911691907f8be0079c531659141344cd1fd0a4f28419497f9722a3daafe3b4186f6b6457e0908290a360018054600160a060020a031916600160a060020a0392909216919091179055620000ff565b6000620000b08251620000ec565b9392505050565b600060208284031215620000ca57600080fd5b6000620000d88484620000a2565b949350505050565b600160a060020a031690565b6000620000f982620000e0565b92915050565b612531806200010f6000396000f3006080604052600436106100b95763ffffffff7c0100000000000000000000000000000000000000000000000000000000600035041663063acc6b81146100be5780630d36d678146100f457806319045a25146101145780632ffb949f146101415780636895179d14610161578063715018a6146101835780638da5cb5b1461019a5780638f32d59b146101af578063b8b56e3c146101c4578063e5d79ac1146101f5578063f214650f14610215578063f2fde38b14610242575b600080fd5b3480156100ca57600080fd5b506100de6100d93660046115bb565b610262565b6040516100eb9190611a58565b60405180910390f35b34801561010057600080fd5b506100de61010f36600461152a565b61034f565b34801561012057600080fd5b5061013461012f366004611642565b610407565b6040516100eb9190611965565b34801561014d57600080fd5b506100de61015c3660046114c2565b610422565b34801561016d57600080fd5b506101766106e4565b6040516100eb9190611b09565b34801561018f57600080fd5b506101986106f3565b005b3480156101a657600080fd5b50610134610750565b3480156101bb57600080fd5b506100de610760565b3480156101d057600080fd5b506101e46101df366004611414565b610771565b6040516100eb9594939291906119b6565b34801561020157600080fd5b506100de610210366004611432565b610906565b34801561022157600080fd5b50610235610230366004611414565b610ec1565b6040516100eb9190611b86565b34801561024e57600080fd5b5061019861025d3660046113d0565b610f82565b600080600a85106102915760405160e560020a62461bcd02815260040161028890611b66565b60405180910390fd5b600a83106102b45760405160e560020a62461bcd02815260040161028890611b76565b5060005b84811015610342578383828181106102cc57fe5b600160a060020a03198a1660009081526003602081815260408320930294909401359391909101915088888581811061030157fe5b602090810292909201357bffffffffffffffffffffffffffffffffffffffffffffffffffffffff1916835250810191909152604001600020556001016102b8565b5060019695505050505050565b600160a060020a0319841660009081526004602081905260408083205490517f02594da0000000000000000000000000000000000000000000000000000000008152600160a060020a039091169182916302594da0916103b59189918991899101611a24565b602060405180830381600087803b1580156103cf57600080fd5b505af11580156103e3573d6000803e3d6000fd5b505050506040513d601f19601f8201168201806040525061034291908101906113f6565b6000610419838363ffffffff610fa116565b90505b92915050565b600061042c6110d3565b60408051608081018252600160a060020a031988168152600160a060020a03871660208201529081016000815260200185858080601f01602080910402602001604051908101604052809392919081815260200183838082843750505092909352505050600160a060020a031987166000908152600360209081526040918290208351815492850151600160a060020a03166c0100000000000000000000000002740100000000000000000000000000000000000000009091046bffffffffffffffffffffffff19909316929092176bffffffffffffffffffffffff1691909117815590820151600180830180549495508594909160ff199091169083600281111561053457fe5b0217905550606082015180516105549160028401916020909101906110f9565b505050600160a060020a038086166000908152600260208181526040808420600160a060020a03198c16855282529283902085518154928701519095166c0100000000000000000000000002740100000000000000000000000000000000000000009095046bffffffffffffffffffffffff19909216919091176bffffffffffffffffffffffff169390931783559083015160018084018054869594919260ff1990911691849081111561060457fe5b0217905550606082015180516106249160028401916020909101906110f9565b50506001548791508690600160a060020a031661063f611177565b61064b93929190611a66565b604051809103906000f080158015610667573d6000803e3d6000fd5b50600160a060020a0319878116600090815260046020526040908190208054909216600160a060020a039384161791829055517fee496c9f72f645a5e3666c514f87a307347bb3ba2f768e3dcb732ed88dca1220926106d0928a928a928a928a92911690611a8e565b60405180910390a150600195945050505050565b600154600160a060020a031681565b6106fb610760565b151561070657600080fd5b60008054604051600160a060020a03909116907f8be0079c531659141344cd1fd0a4f28419497f9722a3daafe3b4186f6b6457e0908390a360008054600160a060020a0319169055565b600054600160a060020a03165b90565b600054600160a060020a0316331490565b600160a060020a031981166000908152600360209081526040808320600492839052818420548154600180840154905494517f70a082310000000000000000000000000000000000000000000000000000000081528796606096889687969095600160a060020a03918216956c0100000000000000000000000090910482169460ff909116936002880193879316916370a082319161081291889101611965565b602060405180830381600087803b15801561082c57600080fd5b505af1158015610840573d6000803e3d6000fd5b505050506040513d601f19601f820116820180604052506108649190810190611694565b8254604080516020601f600260001961010060018816150201909516949094049384018190048102820181019092528281529185918301828280156108ea5780601f106108bf576101008083540402835291602001916108ea565b820191906000526020600020905b8154815290600101906020018083116108cd57829003601f168201915b5050505050925096509650965096509650505091939590929450565b600080600080610914611187565b60008a600160a060020a031661096989898080601f0160208091040260200160405190810160405280939291908181526020018383808284378201915050505050508b60001916610fa190919063ffffffff16565b600160a060020a0316146109925760405160e560020a62461bcd02815260040161028890611b36565b600160a060020a03198c1660009081526003602081815260408084207bffffffffffffffffffffffffffffffffffffffffffffffffffffffff198f1685529092019052908190205460015491517f70a082310000000000000000000000000000000000000000000000000000000081529096508691600160a060020a0316906370a0823190610a25908f90600401611965565b602060405180830381600087803b158015610a3f57600080fd5b505af1158015610a53573d6000803e3d6000fd5b505050506040513d601f19601f82011682018060405250610a779190810190611694565b11610a975760405160e560020a62461bcd02815260040161028890611b56565b6001546040517fdd62ed3e000000000000000000000000000000000000000000000000000000008152309550600160a060020a039091169063dd62ed3e90610ae5908e908890600401611973565b602060405180830381600087803b158015610aff57600080fd5b505af1158015610b13573d6000803e3d6000fd5b505050506040513d601f19601f82011682018060405250610b379190810190611694565b9250848311610b5b5760405160e560020a62461bcd02815260040161028890611b46565b7f7896124430355ea9a2e8a41136ae8f37ec84f6a07c108a3a75a070e526e0f2d983604051610b8a9190611b17565b60405180910390a16080604051908101604052808c600160a060020a031681526020018b7bffffffffffffffffffffffffffffffffffffffffffffffffffffffff191681526020017f30783000000000000000000000000000000000000000000000000000000000006000191681526020017f307830000000000000000000000000000000000000000000000000000000000060001916815250915081600360008e600160a060020a031916600160a060020a031916815260200190815260200160002060040160008d600160a060020a0316600160a060020a0316815260200190815260200160002060008201518160000160006101000a815481600160a060020a030219169083600160a060020a0316021790555060208201518160000160146101000a81548163ffffffff02191690837c01000000000000000000000000000000000000000000000000000000009004021790555060408201518160020190600019169055606082015181600301906000191690559050506001600360008e600160a060020a031916600160a060020a031916815260200190815260200160002060010160006101000a81548160ff02191690836002811115610d4c57fe5b02179055506001546040517f23b872dd000000000000000000000000000000000000000000000000000000008152600160a060020a03909116906323b872dd90610d9e908e9088908a9060040161198e565b602060405180830381600087803b158015610db857600080fd5b505af1158015610dcc573d6000803e3d6000fd5b505050506040513d601f19601f82011682018060405250610df091908101906113f6565b5050600160a060020a03198b166000908152600460208190526040918290205460015492517fa9059cbb000000000000000000000000000000000000000000000000000000008152600160a060020a03918216939091169163a9059cbb91610e5c9185918a9101611a09565b602060405180830381600087803b158015610e7657600080fd5b505af1158015610e8a573d6000803e3d6000fd5b505050506040513d601f19601f82011682018060405250610eae91908101906113f6565b5060019c9b505050505050505050505050565b600160a060020a0319811660009081526004602081905260408083205460015491517f70a08231000000000000000000000000000000000000000000000000000000008152600160a060020a039182169392909116916370a0823191610f2991859101611965565b602060405180830381600087803b158015610f4357600080fd5b505af1158015610f57573d6000803e3d6000fd5b505050506040513d601f19601f82011682018060405250610f7b9190810190611694565b9392505050565b610f8a610760565b1515610f9557600080fd5b610f9e81611063565b50565b60008060008084516041141515610fbb576000935061105a565b50505060208201516040830151606084015160001a601b60ff82161015610fe057601b015b8060ff16601b14158015610ff857508060ff16601c14155b15611006576000935061105a565b600186828585604051600081526020016040526040516110299493929190611acb565b60206040516020810390808403906000865af115801561104d573d6000803e3d6000fd5b5050506020604051035193505b50505092915050565b600160a060020a038116151561107857600080fd5b60008054604051600160a060020a03808516939216917f8be0079c531659141344cd1fd0a4f28419497f9722a3daafe3b4186f6b6457e091a360008054600160a060020a031916600160a060020a0392909216919091179055565b604080516080810182526000808252602082018190529181019190915260608082015290565b828054600181600116156101000203166002900490600052602060002090601f016020900481019282601f1061113a57805160ff1916838001178555611167565b82800160010185558215611167579182015b8281111561116757825182559160200191906001019061114c565b506111739291506111ae565b5090565b60405161083b80611cbd83390190565b60408051608081018252600080825260208201819052918101829052606081019190915290565b61075d91905b8082111561117357600081556001016111b4565b60006104198235611c0e565b6000601f820183136111e557600080fd5b81356111f86111f382611bbb565b611b94565b9150818183526020840193506020810190508385602084028201111561121d57600080fd5b60005b83811015611249578161123388826111c8565b8452506020928301929190910190600101611220565b5050505092915050565b600080601f8301841361126557600080fd5b50813567ffffffffffffffff81111561127d57600080fd5b60208301915083602082028301111561129557600080fd5b9250929050565b6000601f820183136112ad57600080fd5b81356112bb6111f382611bbb565b915081818352602084019350602081019050838560208402820111156112e057600080fd5b60005b8381101561124957816112f68882611324565b84525060209283019291909101906001016112e3565b60006104198251611c1a565b60006104198235611c1f565b6000610419823561075d565b60006104198235611c3e565b600080601f8301841361134e57600080fd5b50813567ffffffffffffffff81111561136657600080fd5b60208301915083600182028301111561129557600080fd5b6000601f8201831361138f57600080fd5b813561139d6111f382611bdc565b915080825260208301602083018583830111156113b957600080fd5b61105a838284611c76565b6000610419825161075d565b6000602082840312156113e257600080fd5b60006113ee84846111c8565b949350505050565b60006020828403121561140857600080fd5b60006113ee848461130c565b60006020828403121561142657600080fd5b60006113ee8484611318565b60008060008060008060a0878903121561144b57600080fd5b60006114578989611318565b965050602061146889828a016111c8565b955050604061147989828a01611330565b945050606061148a89828a01611324565b935050608087013567ffffffffffffffff8111156114a757600080fd5b6114b389828a0161133c565b92509250509295509295509295565b600080600080606085870312156114d857600080fd5b60006114e48787611318565b94505060206114f5878288016111c8565b935050604085013567ffffffffffffffff81111561151257600080fd5b61151e8782880161133c565b95989497509550505050565b6000806000806080858703121561154057600080fd5b600061154c8787611318565b945050602085013567ffffffffffffffff81111561156957600080fd5b611575878288016111d4565b935050604085013567ffffffffffffffff81111561159257600080fd5b61159e8782880161129c565b92505060606115af87828801611324565b91505092959194509250565b6000806000806000606086880312156115d357600080fd5b60006115df8888611318565b955050602086013567ffffffffffffffff8111156115fc57600080fd5b61160888828901611253565b9450945050604086013567ffffffffffffffff81111561162757600080fd5b61163388828901611253565b92509250509295509295909350565b6000806040838503121561165557600080fd5b60006116618585611324565b925050602083013567ffffffffffffffff81111561167e57600080fd5b61168a8582860161137e565b9150509250929050565b6000602082840312156116a657600080fd5b60006113ee84846113c4565b6116bb81611c0e565b82525050565b60006116cc82611c0a565b8084526020840193506116de83611c04565b60005b8281101561170e576116f48683516116b2565b6116fd82611c04565b6020969096019591506001016116e1565b5093949350505050565b600061172382611c0a565b80845260208401935061173583611c04565b60005b8281101561170e5761174b868351611777565b61175482611c04565b602096909601959150600101611738565b6116bb81611c1a565b6116bb81611c1f565b6116bb8161075d565b6116bb81611c60565b6116bb81611c6b565b60008284526020840193506117a8838584611c76565b6117b183611cb2565b9093019392505050565b60006117c682611c0a565b8084526117da816020860160208601611c82565b6117e381611cb2565b9093016020019392505050565b601a81527f53656e6465722053656e64657220416c6c6f77616e6365206973000000000000602082015260400190565b601d81527f426964646572205369676e617475726520636865636b206661696c6564000000602082015260400190565b603381527f62696464657220646964206e6f742070726f7669646520656e6f75676820616c60208201527f6c6f77616e636520666f72207468652062696400000000000000000000000000604082015260600190565b602181527f62696464657220646f6573206e6f74206861766520656e6f7567682070756c7360208201527f6500000000000000000000000000000000000000000000000000000000000000604082015260600190565b601081527f546f6f206d616e7920616374696f6e7300000000000000000000000000000000602082015260400190565b601581527f546f6f206d616e7920616374696f6e20636f7374730000000000000000000000602082015260400190565b6116bb81611c38565b6020810161041c82846116b2565b6040810161198182856116b2565b610f7b60208301846116b2565b6060810161199c82866116b2565b6119a960208301856116b2565b6113ee6040830184611777565b60a081016119c482886116b2565b6119d16020830187611789565b81810360408301526119e381866117bb565b90506119f260608301856116b2565b6119ff6080830184611777565b9695505050505050565b60408101611a1782856116b2565b610f7b6020830184611777565b60608082528101611a3581866116c1565b90508181036020830152611a498185611718565b90506113ee6040830184611777565b6020810161041c8284611765565b60608101611a74828661176e565b611a8160208301856116b2565b6113ee6040830184611780565b60808101611a9c828861176e565b611aa960208301876116b2565b8181036040830152611abc818587611792565b90506119ff60608301846116b2565b60808101611ad98287611777565b611ae6602083018661195c565b611af36040830185611777565b611b006060830184611777565b95945050505050565b6020810161041c8284611780565b60408082528101611b27816117f0565b905061041c6020830184611777565b6020808252810161041c81611820565b6020808252810161041c81611850565b6020808252810161041c816118a6565b6020808252810161041c816118fc565b6020808252810161041c8161192c565b6020810161041c8284611777565b60405181810167ffffffffffffffff81118282101715611bb357600080fd5b604052919050565b600067ffffffffffffffff821115611bd257600080fd5b5060209081020190565b600067ffffffffffffffff821115611bf357600080fd5b506020601f91909101601f19160190565b60200190565b5190565b600160a060020a031690565b151590565b600160a060020a03191690565b60006003821061117357fe5b60ff1690565b7bffffffffffffffffffffffffffffffffffffffffffffffffffffffff191690565b600061041c82611c0e565b600061041c82611c2c565b82818337506000910152565b60005b83811015611c9d578181015183820152602001611c85565b83811115611cac576000848401525b50505050565b601f01601f1916905600608060405234801561001057600080fd5b5060405160608061083b83398101604081815282516020840151919093015160008054600160a060020a031916331780825592939192600160a060020a0316917f8be0079c531659141344cd1fd0a4f28419497f9722a3daafe3b4186f6b6457e0908290a3600080547401000000000000000000000000000000000000000080860402600160a060020a039182161790915560018054848316600160a060020a031991821681179092556002805493851693821693909317909255604080519286168352602083019190915280517f26382d92c390156972f925fc09b6b2809958238815f1ea54eeee9b4505c5daa89281900390910190a15050506107218061011a6000396000f3006080604052600436106100985763ffffffff7c010000000000000000000000000000000000000000000000000000000060003504166302594da0811461009d578063370158ea146101415780636895179d14610190578063715018a6146101c15780637150d8ae146101d857806375488990146101ed5780638da5cb5b1461022c5780638f32d59b14610241578063f2fde38b14610256575b600080fd5b3480156100a957600080fd5b506040805160206004803580820135838102808601850190965280855261012d95369593946024949385019291829185019084908082843750506040805187358901803560208181028481018201909552818452989b9a99890198929750908201955093508392508501908490808284375094975050933594506102779350505050565b604080519115158252519081900360200190f35b34801561014d57600080fd5b5061015661055f565b6040805173ffffffffffffffffffffffffffffffffffffffff199093168352600160a060020a039190911660208301528051918290030190f35b34801561019c57600080fd5b506101a5610590565b60408051600160a060020a039092168252519081900360200190f35b3480156101cd57600080fd5b506101d661059f565b005b3480156101e457600080fd5b506101a5610609565b3480156101f957600080fd5b50610202610618565b6040805173ffffffffffffffffffffffffffffffffffffffff199092168252519081900360200190f35b34801561023857600080fd5b506101a5610639565b34801561024d57600080fd5b5061012d610648565b34801561026257600080fd5b506101d6600160a060020a0360043516610659565b600080600a85511015156102ec57604080517f08c379a000000000000000000000000000000000000000000000000000000000815260206004820152600f60248201527f546f6f206d616e79207061796573730000000000000000000000000000000000604482015290519081900360640190fd5b8351600a1161035c57604080517f08c379a000000000000000000000000000000000000000000000000000000000815260206004820152601160248201527f546f6f206d616e79207061796d656e7473000000000000000000000000000000604482015290519081900360640190fd5b5060015b845181101561044d576002548551600160a060020a039091169063a9059cbb9087908490811061038c57fe5b9060200190602002015186848151811015156103a457fe5b906020019060200201516040518363ffffffff167c01000000000000000000000000000000000000000000000000000000000281526004018083600160a060020a0316600160a060020a0316815260200182815260200192505050602060405180830381600087803b15801561041957600080fd5b505af115801561042d573d6000803e3d6000fd5b505050506040513d602081101561044357600080fd5b5050600101610360565b600254600154604080517fa9059cbb000000000000000000000000000000000000000000000000000000008152600160a060020a039283166004820152602481018790529051919092169163a9059cbb9160448083019260209291908290030181600087803b1580156104bf57600080fd5b505af11580156104d3573d6000803e3d6000fd5b505050506040513d60208110156104e957600080fd5b505060005460408051740100000000000000000000000000000000000000009283900490920273ffffffffffffffffffffffffffffffffffffffff19168252517f8ffee91bcd3df7949b4298a57b51d05ef4de18ebe56f88c9e4590a6ff80bae1b916020908290030190a1506001949350505050565b600054600154740100000000000000000000000000000000000000009182900490910290600160a060020a03169091565b600254600160a060020a031681565b6105a7610648565b15156105b257600080fd5b60008054604051600160a060020a03909116907f8be0079c531659141344cd1fd0a4f28419497f9722a3daafe3b4186f6b6457e0908390a36000805473ffffffffffffffffffffffffffffffffffffffff19169055565b600154600160a060020a031681565b60005474010000000000000000000000000000000000000000908190040281565b600054600160a060020a031690565b600054600160a060020a0316331490565b610661610648565b151561066c57600080fd5b61067581610678565b50565b600160a060020a038116151561068d57600080fd5b60008054604051600160a060020a03808516939216917f8be0079c531659141344cd1fd0a4f28419497f9722a3daafe3b4186f6b6457e091a36000805473ffffffffffffffffffffffffffffffffffffffff1916600160a060020a03929092169190911790555600a165627a7a7230582068132b499edd4f5d7330fe7fcc7ba1ce0618dd3b42cb23593250896cfd2ffc900029a265627a7a72305820ea7bfadd936635ed92e78a572af9e3633544103fa7744473a3c18883b182fd4b6c6578706572696d656e74616cf50037",
  "source": "pragma solidity ^0.4.24;\n/*\n use this to send structs in and out of solidity functions\n https://github.com/ethereum/solidity/issues/3177\n*/\npragma experimental ABIEncoderV2;\n\nimport './TestEscrow.sol';\nimport 'openzeppelin-solidity/contracts/ownership/Ownable.sol';\nimport 'openzeppelin-solidity/contracts/token/ERC20/ERC20.sol';\nimport 'openzeppelin-solidity/contracts/cryptography/ECDSA.sol';\n\ncontract TestPlatform is Ownable {\n\n    ERC20 public testToken;\n\n\n    constructor(ERC20 _testToken) Ownable() public {\n        testToken = _testToken;\n    }\n\n    event DebugEvent(string _message, uint256 _value);\n    event DebugEventAddress(string _message, address _sender);\n\n\n    enum BIRState {Created, Responded,  Settled}\n    mapping(address => mapping (bytes12 => BIR)) buyerBIRs;\n    mapping (bytes12 => BIR) birs;\n    mapping (bytes12 => address) birEscrow;\n    event NewBIR(bytes12 _id, address _buyer, string _catSubCat, address _escrow);\n\n\n    struct BIR {\n        bytes12 id;\n        address buyer;\n        BIRState state;\n        string catSubCat;\n        // action costs\n        mapping (bytes4 => uint256) actionCosts;\n        mapping (address => Bid) sellers;\n    }\n\n    struct Bid {\n        address bidder; // could be seller or expert\n        bytes4 actionType; // CPO, CPA, CPC etc should this be a enum?\n\n        //List of Actions taken by the buyer (open, conversation, appointment, etc.) under each matched seller for the specific birID.\n        mapping (bytes4 => bool) buyerActions;\n\n        /*\n         Bid payment transaction. only populated for the seller. We may not need to store it here\n         if we send the BIR id along with the payment to the escrow\n        */\n        bytes32 paymentTx; // TODO: populate\n        bytes32 settlementTx;\n    }\n\n    function createBIR(bytes12 _id, address _buyer, string _catSubCat) external returns (bool success){\n\n        BIR memory bir = BIR({id: _id, buyer: _buyer, state: BIRState.Created, catSubCat: _catSubCat});\n        birs[_id] = bir;\n        buyerBIRs[_buyer][_id] = bir;\n        birEscrow[_id] = address(new TestEscrow(_id, _buyer, testToken));\n        emit NewBIR(_id,_buyer, _catSubCat, birEscrow[_id]);\n        return true;\n    }\n\n    function setActionCosts(bytes12 _id, bytes4[] _actions, uint256[] _costs)\n    external returns(bool success) {\n        require(_actions.length < 10, \"Too many actions\");\n        require(_costs.length < 10, \"Too many action costs\");\n\n        for (uint i = 0; i < _actions.length; i++) {\n            birs[_id].actionCosts[_actions[i]] = _costs[i];\n        }\n\n        return true;\n    }\n\n    function getBIR(bytes12 _id) view external returns (address, BIRState, string, address, uint) {\n        BIR storage bir = birs[_id];\n        address escrow = birEscrow[_id];\n        return (bir.buyer, bir.state, bir.catSubCat, escrow,  testToken.balanceOf(bir.buyer));\n    }\n\n\n    function sendBid(bytes12 _id, address _bidder, bytes4 _actionType,  bytes32 _bidHash,bytes _signedBidMessage)  external returns (bool success) {\n        require(_bidHash.recover(_signedBidMessage) == _bidder, \"Bidder Signature check failed\");\n\n        uint256  bidCost = birs[_id].actionCosts[_actionType];\n        require(testToken.balanceOf(_bidder) > bidCost, \"bidder does not have enough pulse\");\n\n        address me = address(this);\n        uint256 allowance = testToken.allowance(_bidder, me);\n        require(allowance > bidCost, \"bidder did not provide enough allowance for the bid\");\n        emit DebugEvent(\"Sender Sender Allowance is\", allowance);\n\n        // create the Bid\n        Bid memory sBid = Bid({bidder:_bidder, actionType:_actionType, paymentTx:'0x0', settlementTx:'0x0'});\n        birs[_id].sellers[_bidder] = sBid;\n        birs[_id].state = BIRState.Responded;\n\n        // first transfer  the bid Pulse from seller to this contract as allowance is for this contract.\n        testToken.transferFrom(_bidder, me, bidCost);\n        address escrow = birEscrow[_id];\n\n        // now transfer bid pulse to the intent specific escrow\n        testToken.transfer(escrow,bidCost);\n        return true;\n    }\n\n    function getEscrowBalance(bytes12 _id) view external returns (uint256) {\n        address escrow = birEscrow[_id];\n        return testToken.balanceOf(escrow);\n    }\n\n    function settleBIR(bytes12 _id, address [] _payees, uint256[] _payments, uint256 _buyerPayment) public returns (bool success) {\n        TestEscrow escrow = TestEscrow(birEscrow[_id]);\n        escrow.distributeFunds(_payees, _payments, _buyerPayment);\n        return true;\n    }\n\n    using ECDSA for bytes32;\n    function recover(bytes32 hash, bytes sig) public pure returns (address) {\n        return hash.recover(sig);\n    }\n\n}\n",
  "sourcePath": "/Users/vamsee/Development/blockchain/pulse/oz-sample-app/contracts/TestPlatform.sol",
  "compiler": {
    "name": "solc",
    "version": "0.4.25+commit.59dbf8f1.Emscripten.clang"
  },
  "schemaVersion": "3.0.0-beta.1",
  "updatedAt": "2018-11-03T05:16:54.431Z",
  "devdoc": {
    "methods": {
      "isOwner()": {
        "return": "true if `msg.sender` is the owner of the contract."
      },
      "owner()": {
        "return": "the address of the owner."
      },
      "renounceOwnership()": {
        "details": "Allows the current owner to relinquish control of the contract."
      },
      "transferOwnership(address)": {
        "details": "Allows the current owner to transfer control of the contract to a newOwner.",
        "params": {
          "newOwner": "The address to transfer ownership to."
        }
      }
    }
  },
  "userdoc": {
    "methods": {
      "renounceOwnership()": {
        "notice": "Renouncing to ownership will leave the contract without an owner. It will not be possible to call the functions with the `onlyOwner` modifier anymore."
      }
    }
  }
}