{
  "contractName": "TestEscrow",
  "abi": [
    {
      "constant": true,
      "inputs": [],
      "name": "testToken",
      "outputs": [
        {
          "name": "",
          "type": "address"
        }
      ],
      "payable": false,
      "stateMutability": "view",
      "type": "function"
    },
    {
      "constant": false,
      "inputs": [],
      "name": "renounceOwnership",
      "outputs": [],
      "payable": false,
      "stateMutability": "nonpayable",
      "type": "function"
    },
    {
      "constant": true,
      "inputs": [],
      "name": "buyer",
      "outputs": [
        {
          "name": "",
          "type": "address"
        }
      ],
      "payable": false,
      "stateMutability": "view",
      "type": "function"
    },
    {
      "constant": true,
      "inputs": [],
      "name": "birId",
      "outputs": [
        {
          "name": "",
          "type": "bytes12"
        }
      ],
      "payable": false,
      "stateMutability": "view",
      "type": "function"
    },
    {
      "constant": true,
      "inputs": [],
      "name": "owner",
      "outputs": [
        {
          "name": "",
          "type": "address"
        }
      ],
      "payable": false,
      "stateMutability": "view",
      "type": "function"
    },
    {
      "constant": true,
      "inputs": [],
      "name": "isOwner",
      "outputs": [
        {
          "name": "",
          "type": "bool"
        }
      ],
      "payable": false,
      "stateMutability": "view",
      "type": "function"
    },
    {
      "constant": false,
      "inputs": [
        {
          "name": "newOwner",
          "type": "address"
        }
      ],
      "name": "transferOwnership",
      "outputs": [],
      "payable": false,
      "stateMutability": "nonpayable",
      "type": "function"
    },
    {
      "inputs": [
        {
          "name": "_birId",
          "type": "bytes12"
        },
        {
          "name": "_buyer",
          "type": "address"
        },
        {
          "name": "_testToken",
          "type": "address"
        }
      ],
      "payable": false,
      "stateMutability": "nonpayable",
      "type": "constructor"
    },
    {
      "anonymous": false,
      "inputs": [
        {
          "indexed": false,
          "name": "_birId",
          "type": "bytes12"
        },
        {
          "indexed": false,
          "name": "_buyer",
          "type": "address"
        }
      ],
      "name": "CreateEscrow",
      "type": "event"
    },
    {
      "anonymous": false,
      "inputs": [
        {
          "indexed": false,
          "name": "_birId",
          "type": "bytes12"
        }
      ],
      "name": "EscrowDistributed",
      "type": "event"
    },
    {
      "anonymous": false,
      "inputs": [
        {
          "indexed": true,
          "name": "previousOwner",
          "type": "address"
        },
        {
          "indexed": true,
          "name": "newOwner",
          "type": "address"
        }
      ],
      "name": "OwnershipTransferred",
      "type": "event"
    },
    {
      "constant": true,
      "inputs": [],
      "name": "info",
      "outputs": [
        {
          "name": "",
          "type": "bytes12"
        },
        {
          "name": "",
          "type": "address"
        }
      ],
      "payable": false,
      "stateMutability": "view",
      "type": "function"
    },
    {
      "constant": false,
      "inputs": [
        {
          "name": "_payees",
          "type": "address[]"
        },
        {
          "name": "_payments",
          "type": "uint256[]"
        },
        {
          "name": "_buyerPayment",
          "type": "uint256"
        }
      ],
      "name": "distributeFunds",
      "outputs": [
        {
          "name": "success",
          "type": "bool"
        }
      ],
      "payable": false,
      "stateMutability": "nonpayable",
      "type": "function"
    }
  ],
  "bytecode": "0x608060405234801561001057600080fd5b5060405160608061083b83398101604081815282516020840151919093015160008054600160a060020a031916331780825592939192600160a060020a0316917f8be0079c531659141344cd1fd0a4f28419497f9722a3daafe3b4186f6b6457e0908290a3600080547401000000000000000000000000000000000000000080860402600160a060020a039182161790915560018054848316600160a060020a031991821681179092556002805493851693821693909317909255604080519286168352602083019190915280517f26382d92c390156972f925fc09b6b2809958238815f1ea54eeee9b4505c5daa89281900390910190a15050506107218061011a6000396000f3006080604052600436106100985763ffffffff7c010000000000000000000000000000000000000000000000000000000060003504166302594da0811461009d578063370158ea146101415780636895179d14610190578063715018a6146101c15780637150d8ae146101d857806375488990146101ed5780638da5cb5b1461022c5780638f32d59b14610241578063f2fde38b14610256575b600080fd5b3480156100a957600080fd5b506040805160206004803580820135838102808601850190965280855261012d95369593946024949385019291829185019084908082843750506040805187358901803560208181028481018201909552818452989b9a99890198929750908201955093508392508501908490808284375094975050933594506102779350505050565b604080519115158252519081900360200190f35b34801561014d57600080fd5b5061015661055f565b6040805173ffffffffffffffffffffffffffffffffffffffff199093168352600160a060020a039190911660208301528051918290030190f35b34801561019c57600080fd5b506101a5610590565b60408051600160a060020a039092168252519081900360200190f35b3480156101cd57600080fd5b506101d661059f565b005b3480156101e457600080fd5b506101a5610609565b3480156101f957600080fd5b50610202610618565b6040805173ffffffffffffffffffffffffffffffffffffffff199092168252519081900360200190f35b34801561023857600080fd5b506101a5610639565b34801561024d57600080fd5b5061012d610648565b34801561026257600080fd5b506101d6600160a060020a0360043516610659565b600080600a85511015156102ec57604080517f08c379a000000000000000000000000000000000000000000000000000000000815260206004820152600f60248201527f546f6f206d616e79207061796573730000000000000000000000000000000000604482015290519081900360640190fd5b8351600a1161035c57604080517f08c379a000000000000000000000000000000000000000000000000000000000815260206004820152601160248201527f546f6f206d616e79207061796d656e7473000000000000000000000000000000604482015290519081900360640190fd5b5060015b845181101561044d576002548551600160a060020a039091169063a9059cbb9087908490811061038c57fe5b9060200190602002015186848151811015156103a457fe5b906020019060200201516040518363ffffffff167c01000000000000000000000000000000000000000000000000000000000281526004018083600160a060020a0316600160a060020a0316815260200182815260200192505050602060405180830381600087803b15801561041957600080fd5b505af115801561042d573d6000803e3d6000fd5b505050506040513d602081101561044357600080fd5b5050600101610360565b600254600154604080517fa9059cbb000000000000000000000000000000000000000000000000000000008152600160a060020a039283166004820152602481018790529051919092169163a9059cbb9160448083019260209291908290030181600087803b1580156104bf57600080fd5b505af11580156104d3573d6000803e3d6000fd5b505050506040513d60208110156104e957600080fd5b505060005460408051740100000000000000000000000000000000000000009283900490920273ffffffffffffffffffffffffffffffffffffffff19168252517f8ffee91bcd3df7949b4298a57b51d05ef4de18ebe56f88c9e4590a6ff80bae1b916020908290030190a1506001949350505050565b600054600154740100000000000000000000000000000000000000009182900490910290600160a060020a03169091565b600254600160a060020a031681565b6105a7610648565b15156105b257600080fd5b60008054604051600160a060020a03909116907f8be0079c531659141344cd1fd0a4f28419497f9722a3daafe3b4186f6b6457e0908390a36000805473ffffffffffffffffffffffffffffffffffffffff19169055565b600154600160a060020a031681565b60005474010000000000000000000000000000000000000000908190040281565b600054600160a060020a031690565b600054600160a060020a0316331490565b610661610648565b151561066c57600080fd5b61067581610678565b50565b600160a060020a038116151561068d57600080fd5b60008054604051600160a060020a03808516939216917f8be0079c531659141344cd1fd0a4f28419497f9722a3daafe3b4186f6b6457e091a36000805473ffffffffffffffffffffffffffffffffffffffff1916600160a060020a03929092169190911790555600a165627a7a72305820f0b396d991fc07bad5c8f94a88e4a9039da25040f0dceeba23f630cf7ac8901f0029",
  "source": "pragma solidity ^0.4.24;\n\nimport \"openzeppelin-solidity/contracts/ownership/Ownable.sol\";\nimport 'openzeppelin-solidity/contracts/token/ERC20/ERC20.sol';\n\n\ncontract TestEscrow is Ownable {\n    bytes12 public birId;\n    address public buyer;\n    ERC20 public testToken;\n\n    event CreateEscrow(bytes12 _birId, address _buyer);\n    event EscrowDistributed(bytes12 _birId);\n\n    constructor(bytes12 _birId, address _buyer, ERC20 _testToken)  Ownable() public {\n        birId = _birId;\n        buyer = _buyer;\n        testToken = _testToken;\n        emit CreateEscrow(_birId, _buyer);\n    }\n\n    function info() external view returns  (bytes12, address) {\n        return (birId, buyer);\n    }\n\n    function distributeFunds(address [] _payees, uint256[] _payments, uint256 _buyerPayment)\n            public returns (bool success) {\n        require(_payees.length < 10, \"Too many payess\");\n        require(_payments.length < 10, \"Too many payments\");\n        for (uint i = 1; i < _payees.length; i++) {\n            testToken.transfer(_payees[i],_payments[i]);\n        }\n        testToken.transfer(buyer,_buyerPayment);\n        emit EscrowDistributed(birId);\n        return true;\n    }\n\n}\n",
  "sourcePath": "/Users/vamsee/Development/blockchain/pulse/oz-sample-app/contracts/TestEscrow.sol",
  "compiler": {
    "name": "solc",
    "version": "0.4.24+commit.e67f0147.Emscripten.clang"
  },
  "schemaVersion": "2.0.1",
  "updatedAt": "2018-10-21T16:31:40.126Z"
}