{
  "contractName": "TestCrowdsale",
  "abi": [
    {
      "constant": true,
      "inputs": [],
      "name": "hasClosed",
      "outputs": [
        {
          "name": "",
          "type": "bool"
        }
      ],
      "payable": false,
      "stateMutability": "view",
      "type": "function",
      "signature": "0x1515bc2b"
    },
    {
      "constant": true,
      "inputs": [],
      "name": "finalRate",
      "outputs": [
        {
          "name": "",
          "type": "uint256"
        }
      ],
      "payable": false,
      "stateMutability": "view",
      "type": "function",
      "signature": "0x21106109"
    },
    {
      "constant": true,
      "inputs": [],
      "name": "rate",
      "outputs": [
        {
          "name": "",
          "type": "uint256"
        }
      ],
      "payable": false,
      "stateMutability": "view",
      "type": "function",
      "signature": "0x2c4e722e"
    },
    {
      "constant": true,
      "inputs": [],
      "name": "cap",
      "outputs": [
        {
          "name": "",
          "type": "uint256"
        }
      ],
      "payable": false,
      "stateMutability": "view",
      "type": "function",
      "signature": "0x355274ea"
    },
    {
      "constant": true,
      "inputs": [],
      "name": "goal",
      "outputs": [
        {
          "name": "",
          "type": "uint256"
        }
      ],
      "payable": false,
      "stateMutability": "view",
      "type": "function",
      "signature": "0x40193883"
    },
    {
      "constant": true,
      "inputs": [],
      "name": "weiRaised",
      "outputs": [
        {
          "name": "",
          "type": "uint256"
        }
      ],
      "payable": false,
      "stateMutability": "view",
      "type": "function",
      "signature": "0x4042b66f"
    },
    {
      "constant": true,
      "inputs": [],
      "name": "isOpen",
      "outputs": [
        {
          "name": "",
          "type": "bool"
        }
      ],
      "payable": false,
      "stateMutability": "view",
      "type": "function",
      "signature": "0x47535d7b"
    },
    {
      "constant": true,
      "inputs": [],
      "name": "closingTime",
      "outputs": [
        {
          "name": "",
          "type": "uint256"
        }
      ],
      "payable": false,
      "stateMutability": "view",
      "type": "function",
      "signature": "0x4b6753bc"
    },
    {
      "constant": false,
      "inputs": [],
      "name": "finalize",
      "outputs": [],
      "payable": false,
      "stateMutability": "nonpayable",
      "type": "function",
      "signature": "0x4bb278f3"
    },
    {
      "constant": true,
      "inputs": [],
      "name": "capReached",
      "outputs": [
        {
          "name": "",
          "type": "bool"
        }
      ],
      "payable": false,
      "stateMutability": "view",
      "type": "function",
      "signature": "0x4f935945"
    },
    {
      "constant": true,
      "inputs": [],
      "name": "wallet",
      "outputs": [
        {
          "name": "",
          "type": "address"
        }
      ],
      "payable": false,
      "stateMutability": "view",
      "type": "function",
      "signature": "0x521eb273"
    },
    {
      "constant": true,
      "inputs": [],
      "name": "totalTokensForSale",
      "outputs": [
        {
          "name": "",
          "type": "uint256"
        }
      ],
      "payable": false,
      "stateMutability": "view",
      "type": "function",
      "signature": "0x60219c7b"
    },
    {
      "constant": true,
      "inputs": [],
      "name": "tokensForBounty",
      "outputs": [
        {
          "name": "",
          "type": "uint256"
        }
      ],
      "payable": false,
      "stateMutability": "view",
      "type": "function",
      "signature": "0x644280e2"
    },
    {
      "constant": false,
      "inputs": [],
      "name": "renounceOwnership",
      "outputs": [],
      "payable": false,
      "stateMutability": "nonpayable",
      "type": "function",
      "signature": "0x715018a6"
    },
    {
      "constant": true,
      "inputs": [],
      "name": "preRate",
      "outputs": [
        {
          "name": "",
          "type": "uint256"
        }
      ],
      "payable": false,
      "stateMutability": "view",
      "type": "function",
      "signature": "0x742f79d5"
    },
    {
      "constant": true,
      "inputs": [],
      "name": "tokensForGrowth",
      "outputs": [
        {
          "name": "",
          "type": "uint256"
        }
      ],
      "payable": false,
      "stateMutability": "view",
      "type": "function",
      "signature": "0x77d091b3"
    },
    {
      "constant": true,
      "inputs": [],
      "name": "goalReached",
      "outputs": [
        {
          "name": "",
          "type": "bool"
        }
      ],
      "payable": false,
      "stateMutability": "view",
      "type": "function",
      "signature": "0x7d3d6522"
    },
    {
      "constant": true,
      "inputs": [],
      "name": "owner",
      "outputs": [
        {
          "name": "",
          "type": "address"
        }
      ],
      "payable": false,
      "stateMutability": "view",
      "type": "function",
      "signature": "0x8da5cb5b"
    },
    {
      "constant": true,
      "inputs": [],
      "name": "isOwner",
      "outputs": [
        {
          "name": "",
          "type": "bool"
        }
      ],
      "payable": false,
      "stateMutability": "view",
      "type": "function",
      "signature": "0x8f32d59b"
    },
    {
      "constant": true,
      "inputs": [],
      "name": "totalWeiRaisedDuringPreICO",
      "outputs": [
        {
          "name": "",
          "type": "uint256"
        }
      ],
      "payable": false,
      "stateMutability": "view",
      "type": "function",
      "signature": "0xabe8014a"
    },
    {
      "constant": true,
      "inputs": [],
      "name": "finalized",
      "outputs": [
        {
          "name": "",
          "type": "bool"
        }
      ],
      "payable": false,
      "stateMutability": "view",
      "type": "function",
      "signature": "0xb3f05b97"
    },
    {
      "constant": true,
      "inputs": [],
      "name": "openingTime",
      "outputs": [
        {
          "name": "",
          "type": "uint256"
        }
      ],
      "payable": false,
      "stateMutability": "view",
      "type": "function",
      "signature": "0xb7a8807c"
    },
    {
      "constant": false,
      "inputs": [
        {
          "name": "beneficiary",
          "type": "address"
        }
      ],
      "name": "claimRefund",
      "outputs": [],
      "payable": false,
      "stateMutability": "nonpayable",
      "type": "function",
      "signature": "0xbffa55d5"
    },
    {
      "constant": true,
      "inputs": [],
      "name": "totalTokensForSaleDuringPreICO",
      "outputs": [
        {
          "name": "",
          "type": "uint256"
        }
      ],
      "payable": false,
      "stateMutability": "view",
      "type": "function",
      "signature": "0xc02aaea1"
    },
    {
      "constant": true,
      "inputs": [],
      "name": "stage",
      "outputs": [
        {
          "name": "",
          "type": "uint8"
        }
      ],
      "payable": false,
      "stateMutability": "view",
      "type": "function",
      "signature": "0xc040e6b8"
    },
    {
      "constant": true,
      "inputs": [],
      "name": "convMultiplier",
      "outputs": [
        {
          "name": "",
          "type": "uint256"
        }
      ],
      "payable": false,
      "stateMutability": "view",
      "type": "function",
      "signature": "0xc79dbe2a"
    },
    {
      "constant": true,
      "inputs": [],
      "name": "maxTokens",
      "outputs": [
        {
          "name": "",
          "type": "uint256"
        }
      ],
      "payable": false,
      "stateMutability": "view",
      "type": "function",
      "signature": "0xe8315742"
    },
    {
      "constant": false,
      "inputs": [
        {
          "name": "beneficiary",
          "type": "address"
        }
      ],
      "name": "buyTokens",
      "outputs": [],
      "payable": true,
      "stateMutability": "payable",
      "type": "function",
      "signature": "0xec8ac4d8"
    },
    {
      "constant": false,
      "inputs": [
        {
          "name": "newOwner",
          "type": "address"
        }
      ],
      "name": "transferOwnership",
      "outputs": [],
      "payable": false,
      "stateMutability": "nonpayable",
      "type": "function",
      "signature": "0xf2fde38b"
    },
    {
      "constant": true,
      "inputs": [],
      "name": "currentRate",
      "outputs": [
        {
          "name": "",
          "type": "uint256"
        }
      ],
      "payable": false,
      "stateMutability": "view",
      "type": "function",
      "signature": "0xf9f8bdb7"
    },
    {
      "constant": true,
      "inputs": [],
      "name": "token",
      "outputs": [
        {
          "name": "",
          "type": "address"
        }
      ],
      "payable": false,
      "stateMutability": "view",
      "type": "function",
      "signature": "0xfc0c546a"
    },
    {
      "constant": true,
      "inputs": [],
      "name": "tokensForTeam",
      "outputs": [
        {
          "name": "",
          "type": "uint256"
        }
      ],
      "payable": false,
      "stateMutability": "view",
      "type": "function",
      "signature": "0xfde83a34"
    },
    {
      "inputs": [
        {
          "name": "_openingTime",
          "type": "uint256"
        },
        {
          "name": "_closingTime",
          "type": "uint256"
        },
        {
          "name": "_rate",
          "type": "uint256"
        },
        {
          "name": "_wallet",
          "type": "address"
        },
        {
          "name": "_cap",
          "type": "uint256"
        },
        {
          "name": "_token",
          "type": "address"
        },
        {
          "name": "_goal",
          "type": "uint256"
        }
      ],
      "payable": false,
      "stateMutability": "nonpayable",
      "type": "constructor",
      "signature": "constructor"
    },
    {
      "payable": true,
      "stateMutability": "payable",
      "type": "fallback"
    },
    {
      "anonymous": false,
      "inputs": [
        {
          "indexed": false,
          "name": "text",
          "type": "string"
        }
      ],
      "name": "EthTransferred",
      "type": "event",
      "signature": "0x47af8c4076c54a76f613f82e4296a2c5e2167698d368157a82e62398393e345e"
    },
    {
      "anonymous": false,
      "inputs": [
        {
          "indexed": false,
          "name": "text",
          "type": "string"
        },
        {
          "indexed": false,
          "name": "value",
          "type": "uint256"
        }
      ],
      "name": "EthRefunded",
      "type": "event",
      "signature": "0xb52600144a3148b597c19237923be426a382542c4a3f09ac96338ed92460da19"
    },
    {
      "anonymous": false,
      "inputs": [
        {
          "indexed": true,
          "name": "previousOwner",
          "type": "address"
        },
        {
          "indexed": true,
          "name": "newOwner",
          "type": "address"
        }
      ],
      "name": "OwnershipTransferred",
      "type": "event",
      "signature": "0x8be0079c531659141344cd1fd0a4f28419497f9722a3daafe3b4186f6b6457e0"
    },
    {
      "anonymous": false,
      "inputs": [],
      "name": "CrowdsaleFinalized",
      "type": "event",
      "signature": "0x9270cc390c096600a1c17c44345a1ba689fafd99d97487b10cfccf86cf731836"
    },
    {
      "anonymous": false,
      "inputs": [
        {
          "indexed": true,
          "name": "purchaser",
          "type": "address"
        },
        {
          "indexed": true,
          "name": "beneficiary",
          "type": "address"
        },
        {
          "indexed": false,
          "name": "value",
          "type": "uint256"
        },
        {
          "indexed": false,
          "name": "amount",
          "type": "uint256"
        }
      ],
      "name": "TokensPurchased",
      "type": "event",
      "signature": "0x6faf93231a456e552dbc9961f58d9713ee4f2e69d15f1975b050ef0911053a7b"
    },
    {
      "constant": false,
      "inputs": [
        {
          "name": "value",
          "type": "uint256"
        }
      ],
      "name": "setCrowdsaleStage",
      "outputs": [],
      "payable": false,
      "stateMutability": "nonpayable",
      "type": "function",
      "signature": "0xa997f82f"
    },
    {
      "constant": false,
      "inputs": [
        {
          "name": "_teamFund",
          "type": "address"
        },
        {
          "name": "_growthFund",
          "type": "address"
        },
        {
          "name": "_bountyFund",
          "type": "address"
        },
        {
          "name": "_newTokenOwner",
          "type": "address"
        }
      ],
      "name": "finish",
      "outputs": [],
      "payable": false,
      "stateMutability": "nonpayable",
      "type": "function",
      "signature": "0xe76b8126"
    },
    {
      "constant": true,
      "inputs": [],
      "name": "hasEnded",
      "outputs": [
        {
          "name": "",
          "type": "bool"
        }
      ],
      "payable": false,
      "stateMutability": "view",
      "type": "function",
      "signature": "0xecb70fb7"
    }
  ],
  "bytecode": "0x6080604052600b805460a060020a60ff02191690556b09b18ab5df7180b6b8000000600c556b026c62ad77dc602dae000000600d556b0221f06fb12854a314000000600e556a027b46536c66c8e3000000600f556b03aefc63d4e89230f40000006010556b013a542146f830bafc000000601155619c406012553480156200008657600080fd5b5060405160e08062001fef8339810180604052620000a891908101906200028a565b808787858888876001600081905550600083111515620000c757600080fd5b600160a060020a0382161515620000dd57600080fd5b600160a060020a0381161515620000f357600080fd5b60039290925560028054600160a060020a03928316600160a060020a03199182161790915560018054929093169116179055600081116200013357600080fd5b600555428210156200014457600080fd5b8181116200015157600080fd5b6006919091556007556008805460ff19169055600081116200017257600080fd5b6200018564010000000062000239810204565b6200018f62000248565b6200019b919062000346565b604051809103906000f080158015620001b8573d6000803e3d6000fd5b50600a8054600160a060020a03928316600160a060020a031991821617909155600992909255600b80549092163317918290556040519116906000907f8be0079c531659141344cd1fd0a4f28419497f9722a3daafe3b4186f6b6457e0908290a36012859055828111156200022c57600080fd5b5050505050505062000378565b600254600160a060020a031690565b6040516106e5806200190a83390190565b60006200026782516200035c565b9392505050565b600062000267825162000368565b600062000267825162000375565b600080600080600080600060e0888a031215620002a657600080fd5b6000620002b48a8a6200027c565b9750506020620002c78a828b016200027c565b9650506040620002da8a828b016200027c565b9550506060620002ed8a828b0162000259565b9450506080620003008a828b016200027c565b93505060a0620003138a828b016200026e565b92505060c0620003268a828b016200027c565b91505092959891949750929550565b62000340816200035c565b82525050565b6020810162000356828462000335565b92915050565b600160a060020a031690565b600062000356826200035c565b90565b61158280620003886000396000f30060806040526004361061019d5763ffffffff60e060020a6000350416631515bc2b811461030d57806321106109146103385780632c4e722e1461035a578063355274ea1461036f57806340193883146103845780634042b66f1461039957806347535d7b146103ae5780634b6753bc146103c35780634bb278f3146103d85780634f935945146103ef578063521eb2731461040457806360219c7b14610426578063644280e21461043b578063715018a614610450578063742f79d51461046557806377d091b31461047a5780637d3d65221461048f5780638da5cb5b146104a45780638f32d59b146104b9578063a997f82f146104ce578063abe8014a146104ee578063b3f05b9714610503578063b7a8807c14610518578063bffa55d51461052d578063c02aaea11461054d578063c040e6b814610562578063c79dbe2a14610584578063e76b812614610599578063e8315742146105b9578063ec8ac4d8146105ce578063ecb70fb7146105e1578063f2fde38b146105f6578063f9f8bdb714610616578063fc0c546a1461062b578063fde83a341461064d575b60006101b46012543461066290919063ffffffff16565b90506000600b5460a060020a900460ff1660018111156101d057fe5b14801561025c5750601154816101e461069b565b600160a060020a03166318160ddd6040518163ffffffff1660e060020a028152600401602060405180830381600087803b15801561022157600080fd5b505af1158015610235573d6000803e3d6000fd5b505050506040513d601f19601f820116820180604052506102599190810190611359565b01115b156102ca5760405133903480156108fc02916000818181858888f1935050505015801561028d573d6000803e3d6000fd5b507fb52600144a3148b597c19237923be426a382542c4a3f09ac96338ed92460da19816040516102bd91906114d3565b60405180910390a161030a565b6102d3336106aa565b6000600b5460a060020a900460ff1660018111156102ed57fe5b141561030a57601354610306903463ffffffff61076a16565b6013555b50005b34801561031957600080fd5b5061032261077c565b60405161032f9190611489565b60405180910390f35b34801561034457600080fd5b5061034d610784565b60405161032f91906114f2565b34801561036657600080fd5b5061034d61078a565b34801561037b57600080fd5b5061034d610790565b34801561039057600080fd5b5061034d610796565b3480156103a557600080fd5b5061034d61079c565b3480156103ba57600080fd5b506103226107a2565b3480156103cf57600080fd5b5061034d6107bd565b3480156103e457600080fd5b506103ed6107c3565b005b3480156103fb57600080fd5b50610322610826565b34801561041057600080fd5b5061041961083a565b60405161032f9190611460565b34801561043257600080fd5b5061034d610849565b34801561044757600080fd5b5061034d61084f565b34801561045c57600080fd5b506103ed610855565b34801561047157600080fd5b5061034d6108bf565b34801561048657600080fd5b5061034d6108c6565b34801561049b57600080fd5b506103226108cc565b3480156104b057600080fd5b506104196108d9565b3480156104c557600080fd5b506103226108e8565b3480156104da57600080fd5b506103ed6104e936600461133b565b6108f9565b3480156104fa57600080fd5b5061034d6109b6565b34801561050f57600080fd5b506103226109bc565b34801561052457600080fd5b5061034d6109c5565b34801561053957600080fd5b506103ed610548366004611296565b6109cb565b34801561055957600080fd5b5061034d610a6e565b34801561056e57600080fd5b50610577610a74565b60405161032f91906114a5565b34801561059057600080fd5b5061034d610a84565b3480156105a557600080fd5b506103ed6105b43660046112bc565b610a92565b3480156105c557600080fd5b5061034d610dc8565b6103ed6105dc366004611296565b6106aa565b3480156105ed57600080fd5b50610322610dce565b34801561060257600080fd5b506103ed610611366004611296565b610dd3565b34801561062257600080fd5b5061034d610df2565b34801561063757600080fd5b5061064061069b565b60405161032f9190611497565b34801561065957600080fd5b5061034d610df8565b6000808315156106755760009150610694565b5082820282848281151561068557fe5b041461069057600080fd5b8091505b5092915050565b600154600160a060020a031690565b600080546001018082553491906106c18484610dfe565b6106ca83610e1b565b6004549092506106e0908463ffffffff61076a16565b6004556106ed8483610e37565b83600160a060020a031633600160a060020a03167f6faf93231a456e552dbc9961f58d9713ee4f2e69d15f1975b050ef0911053a7b8585604051610732929190611500565b60405180910390a361074484846109b2565b61074c610e41565b61075684846109b2565b600054811461076457600080fd5b50505050565b60008282018381101561069057600080fd5b600754421190565b619c4081565b60035490565b60055490565b60095490565b60045490565b600060065442101580156107b857506007544211155b905090565b60075490565b60085460ff16156107d357600080fd5b6107db61077c565b15156107e657600080fd5b6008805460ff191660011790556107fb610f3b565b6040517f9270cc390c096600a1c17c44345a1ba689fafd99d97487b10cfccf86cf73183690600090a1565b600060055461083361079c565b1015905090565b600254600160a060020a031690565b60105481565b600f5481565b61085d6108e8565b151561086857600080fd5b600b54604051600091600160a060020a0316907f8be0079c531659141344cd1fd0a4f28419497f9722a3daafe3b4186f6b6457e0908390a3600b805473ffffffffffffffffffffffffffffffffffffffff19169055565b6201388081565b600d5481565b600060095461083361079c565b600b54600160a060020a031690565b600b54600160a060020a0316331490565b60006109036108e8565b151561090e57600080fd5b81151561091d5750600061092a565b816001141561092a575060015b600b805482919074ff0000000000000000000000000000000000000000191660a060020a83600181111561095a57fe5b02179055506000600b5460a060020a900460ff16600181111561097957fe5b141561098b57620138806012556109b2565b6001600b5460a060020a900460ff1660018111156109a557fe5b14156109b257619c406012555b5050565b60135481565b60085460ff1690565b60065490565b6109d36109bc565b15156109de57600080fd5b6109e66108cc565b156109f057600080fd5b600a546040517f51cff8d9000000000000000000000000000000000000000000000000000000008152600160a060020a03909116906351cff8d990610a39908490600401611460565b600060405180830381600087803b158015610a5357600080fd5b505af1158015610a67573d6000803e3d6000fd5b5050505050565b60115481565b600b5460a060020a900460ff1681565b69d3c21bcecceda100000081565b6000806000610a9f6108e8565b1515610aaa57600080fd5b610ab26109bc565b15610abc57600080fd5b610ac461069b565b600160a060020a03166318160ddd6040518163ffffffff1660e060020a028152600401602060405180830381600087803b158015610b0157600080fd5b505af1158015610b15573d6000803e3d6000fd5b505050506040513d601f19601f82011682018060405250610b399190810190611359565b600c549093508310610b4a57600080fd5b826010540391506000821115610b6357600d8054830190555b610b6b61069b565b600e546040517f40c10f19000000000000000000000000000000000000000000000000000000008152919250600160a060020a038316916340c10f1991610bb7918b919060040161146e565b602060405180830381600087803b158015610bd157600080fd5b505af1158015610be5573d6000803e3d6000fd5b505050506040513d601f19601f82011682018060405250610c09919081019061131d565b50600d546040517f40c10f19000000000000000000000000000000000000000000000000000000008152600160a060020a038316916340c10f1991610c52918a9160040161146e565b602060405180830381600087803b158015610c6c57600080fd5b505af1158015610c80573d6000803e3d6000fd5b505050506040513d601f19601f82011682018060405250610ca4919081019061131d565b50600f546040517f40c10f19000000000000000000000000000000000000000000000000000000008152600160a060020a038316916340c10f1991610ced91899160040161146e565b602060405180830381600087803b158015610d0757600080fd5b505af1158015610d1b573d6000803e3d6000fd5b505050506040513d601f19601f82011682018060405250610d3f919081019061131d565b506040517ff2fde38b000000000000000000000000000000000000000000000000000000008152600160a060020a0382169063f2fde38b90610d85908790600401611460565b600060405180830381600087803b158015610d9f57600080fd5b505af1158015610db3573d6000803e3d6000fd5b50505050610dbf6107c3565b50505050505050565b600c5481565b600190565b610ddb6108e8565b1515610de657600080fd5b610def81611097565b50565b60125481565b600e5481565b610e066107a2565b1515610e1157600080fd5b6109b28282611115565b601254600090610e31908363ffffffff61066216565b92915050565b6109b28282611145565b6000600b5460a060020a900460ff166001811115610e5b57fe5b1415610edc57610e6961083a565b600160a060020a03166108fc349081150290604051600060405180830381858888f19350505050158015610ea1573d6000803e3d6000fd5b507f47af8c4076c54a76f613f82e4296a2c5e2167698d368157a82e62398393e345e604051610ecf906114b3565b60405180910390a1610f39565b6001600b5460a060020a900460ff166001811115610ef657fe5b1415610f39577f47af8c4076c54a76f613f82e4296a2c5e2167698d368157a82e62398393e345e604051610f29906114c3565b60405180910390a1610f396111da565b565b610f436108cc565b1561102357600a60009054906101000a9004600160a060020a0316600160a060020a03166343d726d66040518163ffffffff1660e060020a028152600401600060405180830381600087803b158015610f9b57600080fd5b505af1158015610faf573d6000803e3d6000fd5b50505050600a60009054906101000a9004600160a060020a0316600160a060020a0316639af6549a6040518163ffffffff1660e060020a028152600401600060405180830381600087803b15801561100657600080fd5b505af115801561101a573d6000803e3d6000fd5b5050505061108f565b600a60009054906101000a9004600160a060020a0316600160a060020a0316638c52dc416040518163ffffffff1660e060020a028152600401600060405180830381600087803b15801561107657600080fd5b505af115801561108a573d6000803e3d6000fd5b505050505b610f39610f39565b600160a060020a03811615156110ac57600080fd5b600b54604051600160a060020a038084169216907f8be0079c531659141344cd1fd0a4f28419497f9722a3daafe3b4186f6b6457e090600090a3600b805473ffffffffffffffffffffffffffffffffffffffff1916600160a060020a0392909216919091179055565b61111f828261123e565b60055461113a8261112e61079c565b9063ffffffff61076a16565b11156109b257600080fd5b61114d61069b565b600160a060020a03166340c10f1983836040518363ffffffff1660e060020a02815260040161117d92919061146e565b602060405180830381600087803b15801561119757600080fd5b505af11580156111ab573d6000803e3d6000fd5b505050506040513d601f19601f820116820180604052506111cf919081019061131d565b15156109b257600080fd5b600a546040517ff340fa01000000000000000000000000000000000000000000000000000000008152600160a060020a039091169063f340fa01903490611225903390600401611460565b6000604051808303818588803b158015610a5357600080fd5b600160a060020a038216151561125357600080fd5b8015156109b257600080fd5b600061126b823561150e565b9392505050565b600061126b825161151a565b600061126b823561152f565b600061126b825161152f565b6000602082840312156112a857600080fd5b60006112b4848461125f565b949350505050565b600080600080608085870312156112d257600080fd5b60006112de878761125f565b94505060206112ef8782880161125f565b93505060406113008782880161125f565b92505060606113118782880161125f565b91505092959194509250565b60006020828403121561132f57600080fd5b60006112b48484611272565b60006020828403121561134d57600080fd5b60006112b4848461127e565b60006020828403121561136b57600080fd5b60006112b4848461128a565b6113808161150e565b82525050565b6113808161151a565b61138081611532565b6113808161153d565b601a81527f666f7277617264696e672066756e647320746f2077616c6c6574000000000000602082015260400190565b602481527f666f7277617264696e672066756e647320746f20726566756e6461626c65207660208201527f61756c7400000000000000000000000000000000000000000000000000000000604082015260600190565b601081527f50726549434f204c696d69742048697400000000000000000000000000000000602082015260400190565b6113808161152f565b60208101610e318284611377565b6040810161147c8285611377565b61126b6020830184611457565b60208101610e318284611386565b60208101610e31828461138f565b60208101610e318284611398565b60208082528101610e31816113a1565b60208082528101610e31816113d1565b604080825281016114e381611427565b9050610e316020830184611457565b60208101610e318284611457565b6040810161147c8285611457565b600160a060020a031690565b151590565b60006002821061152b57fe5b5090565b90565b6000610e318261150e565b6000610e318261151f5600a265627a7a72305820d9ce8b44ac88e406f37b64d236a7e3f8629b3af787e3d102fa5191d95211d9b46c6578706572696d656e74616cf50037608060405234801561001057600080fd5b506040516020806106e5833981016040818152915160008054600160a060020a031916331790819055600160a060020a0316825291517f4101e71e974f68df5e9730cc223280b41654676bbb052cdcc735c3337e64d2d99181900360200190a1600160a060020a038116151561008557600080fd5b6002805460ff19600160a060020a03939093166101000261010060a860020a031990911617919091169055610626806100bf6000396000f3006080604052600436106100ae5763ffffffff7c01000000000000000000000000000000000000000000000000000000006000350416632348238c81146100b357806338af3eed146100d657806343d726d61461010757806351cff8d91461011c578063685ca1941461013d5780638c52dc41146101725780639af6549a14610187578063c19d93fb1461019c578063c6dbdf61146101d5578063e3a9db1a146101ea578063f340fa011461021d575b600080fd5b3480156100bf57600080fd5b506100d4600160a060020a0360043516610231565b005b3480156100e257600080fd5b506100eb6102c4565b60408051600160a060020a039092168252519081900360200190f35b34801561011357600080fd5b506100d46102d8565b34801561012857600080fd5b506100d4600160a060020a0360043516610343565b34801561014957600080fd5b5061015e600160a060020a0360043516610363565b604080519115158252519081900360200190f35b34801561017e57600080fd5b506100d461037f565b34801561019357600080fd5b506100d46103eb565b3480156101a857600080fd5b506101b1610447565b604051808260028111156101c157fe5b60ff16815260200191505060405180910390f35b3480156101e157600080fd5b506100eb610450565b3480156101f657600080fd5b5061020b600160a060020a036004351661045f565b60408051918252519081900360200190f35b6100d4600160a060020a036004351661047a565b600054600160a060020a0316331461024857600080fd5b600160a060020a038116151561025d57600080fd5b6000805473ffffffffffffffffffffffffffffffffffffffff1916600160a060020a03838116919091179182905560408051929091168252517f4101e71e974f68df5e9730cc223280b41654676bbb052cdcc735c3337e64d2d9916020908290030190a150565b6002546101009004600160a060020a031690565b600054600160a060020a031633146102ef57600080fd5b60006002805460ff169081111561030257fe5b1461030c57600080fd5b6002805460ff1916811790556040517f088672c3a6e342f7cd94a65ba63b79df24a8973927b4d05d803c44bbf787d12f90600090a1565b61034c81610363565b151561035757600080fd5b610360816104a0565b50565b600060016002805460ff169081111561037857fe5b1492915050565b600054600160a060020a0316331461039657600080fd5b60006002805460ff16908111156103a957fe5b146103b357600080fd5b6002805460ff191660011790556040517f599d8e5a83cffb867d051598c4d70e805d59802d8081c1c7d6dffc5b6aca2b8990600090a1565b6002805460ff16818111156103fc57fe5b1461040657600080fd5b600254604051600160a060020a036101009092049190911690303180156108fc02916000818181858888f19350505050158015610360573d6000803e3d6000fd5b60025460ff1690565b600054600160a060020a031690565b600160a060020a031660009081526001602052604090205490565b60006002805460ff169081111561048d57fe5b1461049757600080fd5b61036081610547565b60008054600160a060020a031633146104b857600080fd5b50600160a060020a038116600081815260016020526040808220805490839055905190929183156108fc02918491818181858888f19350505050158015610503573d6000803e3d6000fd5b50604080518281529051600160a060020a038416917f7084f5476618d8e60b11ef0d7d3f06914655adb8793e28ff7f018d4c76d505d5919081900360200190a25050565b60008054600160a060020a0316331461055f57600080fd5b50600160a060020a038116600090815260016020526040902054349061058b908263ffffffff6105e116565b600160a060020a038316600081815260016020908152604091829020939093558051848152905191927f2da466a7b24304f47e87fa2e1e5a81b9831ce54fec19055ce277ca2f39ba42c492918290030190a25050565b6000828201838110156105f357600080fd5b93925050505600a165627a7a72305820a97e7a42bc26e0d2b8d2fa5cbea360023923a5b239ff602cfe319100365e84d10029",
  "source": "pragma solidity ^0.4.24;\n// use this to send structs in and out of solidity functions\npragma experimental ABIEncoderV2;\n\nimport './TestToken.sol';\nimport 'openzeppelin-solidity/contracts/crowdsale/validation/IndividuallyCappedCrowdsale.sol';\nimport 'openzeppelin-solidity/contracts/crowdsale/validation/CappedCrowdsale.sol';\nimport 'openzeppelin-solidity/contracts/crowdsale/validation/TimedCrowdsale.sol';\nimport 'openzeppelin-solidity/contracts/crowdsale/distribution/RefundableCrowdsale.sol';\nimport 'openzeppelin-solidity/contracts/crowdsale/emission/MintedCrowdsale.sol';\nimport \"openzeppelin-solidity/contracts/token/ERC20/ERC20Mintable.sol\";\nimport \"openzeppelin-solidity/contracts/ownership/Ownable.sol\";\n\n\n\n\n// VL: 10/28: tests will fail if we make this IndividuallyCappedCrowdsale\n//contract TestCrowdsale is CappedCrowdsale, IndividuallyCappedCrowdsale, RefundableCrowdsale, MintedCrowdsale,  Ownable {\ncontract TestCrowdsale is CappedCrowdsale, RefundableCrowdsale, MintedCrowdsale,  Ownable {\n\n\n    // ICO Stage\n    // ============\n    enum CrowdsaleStage { PreICO, ICO }\n    CrowdsaleStage public stage = CrowdsaleStage.PreICO; // By default it's Pre Sale\n\n    // Token Distribution\n    // =============================\n    uint256 public constant convMultiplier = 10 ** 24; // 18 decimals plus 10 ** 6 as we want to reference most values in millions\n    uint256 public maxTokens = 3000 * convMultiplier; // There will be total 3B Test Tokens\n    uint256 public tokensForGrowth = 750  * convMultiplier; // 25%\n    uint256 public tokensForTeam = 660 * convMultiplier; // 22%\n    uint256 public tokensForBounty = 3 * convMultiplier; // 1%\n    uint256 public totalTokensForSale = 1140 *  convMultiplier; // 1.1B (38%) TEST will be sold in Crowdsale\n    uint256 public totalTokensForSaleDuringPreICO = 380 * convMultiplier; // 30% of the 1.1B Crowdsale PULSE will be sold during PreICO\n    uint256 public constant preRate = 80000; // pulse per ether during PreICO, reflecting a 50% discount\n    uint256 public constant finalRate = 40000; // pulse per ether during ICO\n    uint256 public currentRate = 40000; // pulse per ether during ICO\n    // ==============================\n\n    // Amount raised in PreICO\n    // ==================\n    uint256 public totalWeiRaisedDuringPreICO;\n    // ===================\n\n\n    // Events\n    event EthTransferred(string text);\n    event EthRefunded(string text, uint256 value);\n\n    constructor(\n        uint256 _openingTime,\n        uint256 _closingTime,\n        uint256 _rate,\n        address _wallet,\n        uint256 _cap,\n        ERC20Mintable _token,\n        uint256 _goal\n    )\n    public\n    Crowdsale(_rate, _wallet, _token)\n    CappedCrowdsale(_cap)\n    TimedCrowdsale(_openingTime, _closingTime)\n    RefundableCrowdsale(_goal)\n    {\n        //As goal needs to be met for a successful crowdsale\n        //the value needs to less or equal than a cap which is limit for accepted funds\n        currentRate = _rate;\n        require(_goal <= _cap);\n    }\n\n    // Crowdsale Stage Management\n    // =========================================================\n\n    // Change Crowdsale Stage. Available Options: PreICO, ICO\n    function setCrowdsaleStage(uint value) public onlyOwner {\n\n        CrowdsaleStage _stage;\n\n        if (uint(CrowdsaleStage.PreICO) == value) {\n            _stage = CrowdsaleStage.PreICO;\n        } else if (uint(CrowdsaleStage.ICO) == value) {\n            _stage = CrowdsaleStage.ICO;\n        }\n\n        stage = _stage;\n\n        //1 ETH can buy 5 tokens in PreICO but only 2 during ICO\n        if (stage == CrowdsaleStage.PreICO) {\n            currentRate = preRate;\n        } else if (stage == CrowdsaleStage.ICO) {\n            currentRate = finalRate;\n        }\n    }\n\n    function _getTokenAmount(uint256 weiAmount)\n    internal view returns (uint256)\n    {\n        return currentRate.mul(weiAmount);\n    }\n\n\n    function () external payable {\n        uint256 tokensThatWillBeMintedAfterPurchase = msg.value.mul(currentRate);\n        if ((stage == CrowdsaleStage.PreICO) && (token().totalSupply() + tokensThatWillBeMintedAfterPurchase > totalTokensForSaleDuringPreICO)) {\n            msg.sender.transfer(msg.value); // Refund them\n            emit EthRefunded(\"PreICO Limit Hit\", tokensThatWillBeMintedAfterPurchase);\n            return;\n        }\n\n        buyTokens(msg.sender);\n\n        if (stage == CrowdsaleStage.PreICO) {\n            totalWeiRaisedDuringPreICO = totalWeiRaisedDuringPreICO.add(msg.value);\n        }\n    }\n\n    function _forwardFunds() internal {\n        if (stage == CrowdsaleStage.PreICO) {\n            wallet().transfer(msg.value);\n            emit EthTransferred(\"forwarding funds to wallet\");\n        } else if (stage == CrowdsaleStage.ICO) {\n            emit EthTransferred(\"forwarding funds to refundable vault\");\n            super._forwardFunds();\n        }\n    }\n\n    // ===========================\n\n    // Finish: Mint Extra Tokens as needed before finalizing the Crowdsale.\n    // ====================================================================\n\n\n    function finish(address _teamFund, address _growthFund, address _bountyFund, address _newTokenOwner) public onlyOwner {\n\n        require(!finalized());\n        uint256 alreadyMinted = token().totalSupply();\n        require(alreadyMinted < maxTokens);\n\n        uint256 unsoldTokens = totalTokensForSale - alreadyMinted;\n        if (unsoldTokens > 0) {\n            tokensForGrowth = tokensForGrowth + unsoldTokens;\n        }\n\n        TestToken ttoken = TestToken(ERC20(token()));\n        ttoken.mint(_teamFund,tokensForTeam);\n        ttoken.mint(_growthFund,tokensForGrowth);\n        ttoken.mint(_bountyFund,tokensForBounty);\n        ttoken.transferOwnership(_newTokenOwner);\n        finalize();\n    }\n    // ===============================\n\n    // REMOVE THIS FUNCTION ONCE YOU ARE READY FOR PRODUCTION\n    // USEFUL FOR TESTING `finish()` FUNCTION\n\n\n    function hasEnded() public view returns (bool) {\n        return true;\n    }\n\n\n}\n",
  "sourcePath": "/Users/vamsee/Development/blockchain/pulse/oz-sample-app/contracts/TestCrowdsale.sol",
  "compiler": {
    "name": "solc",
    "version": "0.4.25+commit.59dbf8f1.Emscripten.clang"
  },
  "schemaVersion": "3.0.0-beta.1",
  "updatedAt": "2018-11-03T05:16:54.436Z",
  "devdoc": {
    "methods": {
      "buyTokens(address)": {
        "details": "low level token purchase ***DO NOT OVERRIDE*** This function has a non-reentrancy guard, so it shouldn't be called by another `nonReentrant` function.",
        "params": {
          "beneficiary": "Recipient of the token purchase"
        }
      },
      "cap()": {
        "return": "the cap of the crowdsale."
      },
      "capReached()": {
        "details": "Checks whether the cap has been reached.",
        "return": "Whether the cap was reached"
      },
      "claimRefund(address)": {
        "details": "Investors can claim refunds here if crowdsale is unsuccessful",
        "params": {
          "beneficiary": "Whose refund will be claimed."
        }
      },
      "closingTime()": {
        "return": "the crowdsale closing time."
      },
      "finalize()": {
        "details": "Must be called after crowdsale ends, to do some extra finalization work. Calls the contract's finalization function."
      },
      "finalized()": {
        "return": "true if the crowdsale is finalized, false otherwise."
      },
      "goal()": {
        "return": "minimum amount of funds to be raised in wei."
      },
      "goalReached()": {
        "details": "Checks whether funding goal was reached.",
        "return": "Whether funding goal was reached"
      },
      "hasClosed()": {
        "details": "Checks whether the period in which the crowdsale is open has already elapsed.",
        "return": "Whether crowdsale period has elapsed"
      },
      "isOpen()": {
        "return": "true if the crowdsale is open, false otherwise."
      },
      "isOwner()": {
        "return": "true if `msg.sender` is the owner of the contract."
      },
      "openingTime()": {
        "return": "the crowdsale opening time."
      },
      "owner()": {
        "return": "the address of the owner."
      },
      "rate()": {
        "return": "the number of token units a buyer gets per wei."
      },
      "renounceOwnership()": {
        "details": "Allows the current owner to relinquish control of the contract."
      },
      "token()": {
        "return": "the token being sold."
      },
      "transferOwnership(address)": {
        "details": "Allows the current owner to transfer control of the contract to a newOwner.",
        "params": {
          "newOwner": "The address to transfer ownership to."
        }
      },
      "wallet()": {
        "return": "the address where funds are collected."
      },
      "weiRaised()": {
        "return": "the amount of wei raised."
      }
    }
  },
  "userdoc": {
    "methods": {
      "renounceOwnership()": {
        "notice": "Renouncing to ownership will leave the contract without an owner. It will not be possible to call the functions with the `onlyOwner` modifier anymore."
      }
    }
  }
}